:020000040800F2
:100000000050002009110008250C00082D0C0008E4
:1000100000000000000000000000000000000000E0
:10002000000000000000000000000000350C000887
:1000300000000000000000003F0C0008490C000810
:100040005911000859110008590C000859110008ED
:1000500059110008591100085911000859110008D8
:100060005911000859110008710C0008950C00087E
:1000700059110008591100085911000859110008B8
:10008000591100085911000859110008000000001A
:100090005911000859110008591100085911000898
:1000A0005911000859110008591100085911000888
:1000B00059110008B90C000859110008591100081D
:1000C00010B5064C2378002B07D1054B002B02D02E
:1000D000044800E000BF0123237010BD6000002031
:1000E00000000000FC5B0008044B10B5002B03D09F
:1000F0000349044800E000BF10BDC04600000000F6
:1001000064000020FC5B00080023C25C0133002A6D
:10011000FBD1581E70470000002243088B4274D365
:1001200003098B425FD3030A8B4244D3030B8B42F8
:1001300028D3030C8B420DD3FF22090212BA030C01
:100140008B4202D31212090265D0030B8B4219D3E2
:1001500000E0090AC30B8B4201D3CB03C01A524102
:10016000830B8B4201D38B03C01A5241430B8B424A
:1001700001D34B03C01A5241030B8B4201D30B0333
:10018000C01A5241C30A8B4201D3CB02C01A52415A
:10019000830A8B4201D38B02C01A5241430A8B421D
:1001A00001D34B02C01A5241030A8B4201D30B0206
:1001B000C01A5241CDD2C3098B4201D3CB01C01A20
:1001C000524183098B4201D38B01C01A524143092A
:1001D0008B4201D34B01C01A524103098B4201D318
:1001E0000B01C01A5241C3088B4201D3CB00C01A85
:1001F000524183088B4201D38B00C01A52414308FD
:100200008B4201D34B00C01A5241411A00D2014621
:10021000524110467047FFE701B5002000F006F894
:1002200002BDC0460029F7D076E770477047C04648
:10023000002B11D1002A0FD1002900D1002802D0B3
:100240000021C943080007B4024802A140180290E7
:1002500003BDC046D9FFFFFF03B4684601B502984D
:1002600000F006F8019B9E4602B00CBC7047C046E9
:10027000F0B557464E464546DE46E0B504000D0053
:100280009246994683B08B4230D82DD0494650468D
:1002900000F0BAF829000600200000F0B5F8331A83
:1002A0009846203B34D49B4653465A469340424698
:1002B0001F00534693401E00AF423BD8AF4200D1CF
:1002C00079E05B46A41BBD41002B00DA76E00022FA
:1002D00000230092019301235A4693400193012386
:1002E00042469340009329E08242CFD90022002366
:1002F000009201930C9B002B01D01C605D60009864
:10030000019903B0F0BCBB46B246A946A046F0BD79
:1003100042469B4620239B1A5246DA404146130030
:100320004A468A40170042461F43534693401E00E8
:10033000AF42C3D900220023009201934346002B11
:10034000D8D0FB0772081A4346467B080EE0AB4242
:1003500001D1A2420CD8A41A9D41012024196D415B
:100360000021013E24184D41002E06D0AB42EED9AB
:10037000013E24196D41002EF8D1009801995B4689
:1003800000196941002B24DB2B005A464446D34018
:100390002A00E2401C005B461500002B2ADB2600E9
:1003A0009E40330026004746BE403200801A9941E5
:1003B000009001919EE7A342BCD882E742462023E9
:1003C00000219B1A0022009101920122DA40019241
:1003D00085E7424620239B1A2A0046469A4023007E
:1003E000F340444613432A00E2401C005B461500DC
:1003F000002BD4DA42462F002023260097409B1A78
:10040000DE403B003343CDE710B5002903D100F0B7
:1004100007F8203002E0080000F002F810BDC046E6
:100420001C2101231B04984201D3000C10391B0A24
:10043000984201D3000A08391B09984201D30009E8
:10044000043902A2105C40187047C046040302023F
:1004500001010101000000000000000080B582B031
:1004600000AF104B1A6B0F4B01210A431A630D4B5F
:100470001B6B012213407B607B68002200210A2055
:1004800000F0CEFF0A2000F0E0FF002200210B2048
:1004900000F0C6FF0B2000F0D8FFC046BD4602B0FA
:1004A00080BDC0460010024090B589B000AF0C245A
:1004B0003B19180014231A00002105F0D3FA284B29
:1004C000DA6A274B04210A43DA62254BDB6A0422ED
:1004D0001340BB60BB68224BDA6A214B01210A43FF
:1004E000DA621F4BDB6A012213407B607B681C4B86
:1004F000DA6A1B4B02210A43DA62194BDB6A0222D9
:1005000013403B603B68174B00222021180001F08C
:10051000D3FC3B1920221A603B1900225A603B1978
:1005200000229A603A19A023DB051100180001F09F
:1005300063FA21007B1820221A607B1801225A607E
:100540007B1800229A607B180022DA607B18054A2B
:100550001900100001F050FAC046BD4609B090BD28
:10056000001002400004005080B500AF1B4B1C4A35
:100570001A601A4B1B4A5A60184B00229A60174B9C
:100580000122DA60154B00221A61144B00225A61D5
:10059000124B00229A61114B0022DA610F4B0022AC
:1005A0001A620E4B180001F0A5FC031E01D000F0EA
:1005B000C9FA0A4B0021180001F072FD031E01D098
:1005C00000F0C0FA054B0021180001F0B5FD031E34
:1005D00001D000F0B7FAC046BD4680BD7C000020C7
:1005E000005400400202000090B589B000AF78606E
:1005F0000C243B19180014231A00002105F032FACC
:100600007B681B68174A934228D1174BDA6A164B4E
:1006100002210A43DA62144BDB6A02221340BB60F8
:10062000BB6821007B18C0221A607B1812225A6016
:100630007B1801229A607B180322DA607B18012262
:100640001A617B18094A1900100001F0D5F9064B10
:100650009A6B054B802189030A439A63C046BD46C5
:1006600009B090BD0054004000100240000400504A
:1006700080B582B000AF78607B681B680B4A9342FC
:100680000FD10B4B9A6B0A4B0A490A409A630A4BEB
:100690004021180001F02EFB074B8021180001F0CB
:1006A00029FBC046BD4602B080BDC0460054004094
:1006B00000100240FFFFDFFF0004005080B582B051
:1006C00000AF7860C046C046BD4602B080BD80B570
:1006D00082B000AF7860C046C046BD4602B080BD63
:1006E00080B582B000AF78607B6807331B78462BFB
:1006F00008D04F2B0AD10A4B01221A70094B012254
:100700001A7004E0064B00221A7000E0C046FA237B
:100710005B00180000F092FDC046BD4602B080BDEF
:10072000480100200000002080B584B004AFFA2307
:100730009A001D491D481E4B0293012301931D4B36
:100740000093002304F059FF1B4B180001F078FCC4
:100750001A4B180003F008F8194B180002F014FFA8
:10076000031E01D000F0EEF9154B04223B211800C6
:1007700002F032FE031E01D000F0E4F9104B042217
:100780003B21180002F028FE031E01D000F0DAF928
:100790000121012001F01CFD00F02CF900F012F8FD
:1007A000C046BD4680BDC046285C00080C01002044
:1007B0001C5C0008B80B00007C000020FC0100203D
:1007C0004C01002080B588B004AF394BDA6A384B51
:1007D00001210A43DA62364BDB6A01221340FB60D7
:1007E000FB68334BDA6A324B02210A43DA62304B40
:1007F000DB6A02221340BB60BB682D4BDA6A2C4BCC
:1008000004210A43DA622A4BDB6A042213407B602C
:100810007B68274B9A6B264B802189030A439A6396
:10082000234B9A6B224B8021C9020A439A63204BC7
:100830001A6B1F4B01210A431A631D4B1B6B0122CC
:1008400013403B603B68FFF72FFEFFF707FEFFF703
:100850008BFE00F079FA00F0A5FA00F079F9154B5B
:10086000802292001449154804F0D8FD144B8022D0
:1008700092001449144804F0D1FD144A0F4B1100A2
:10088000180004F082FE124B01221A70FA239A001B
:1008900010490D48104B0293012301930F4B009315
:1008A000002304F0AAFEC046BD4604B080BDC04689
:1008B000001002403C5C000874010020D0000020C1
:1008C000445C0008FC0100200C010020845C00084E
:1008D000000000204C5C00081C5C0008B80B000005
:1008E00080B586B004AF00F039FC00F083F8FFF764
:1008F000DBFDFFF7B3FDFFF737FE00F025FA00F050
:1009000027F900F04FFA2D4B802292002C492D48F8
:1009100004F084FD2C4B802292002C492C4804F0DA
:100920007DFD2C4A274B1100180004F02EFEFA23FF
:100930009A0029492648294B029301230193284B09
:100940000093002304F059FE264B180000F076FCBB
:1009500000237B6000233B60FA239A0022491C4855
:100960001E4B0293012301931D4B0093002304F0BF
:1009700044FE642000F062FC1C4B00221A70FA2333
:100980009A001B491248154B029301230193144B03
:100990000093002304F031FE642000F04FFC134B61
:1009A0001B78DBB2022B05D0E9DC002B04D1FFF76A
:1009B000BBFE02E0C046E2E7C046E0E73C5C000860
:1009C00074010020D0000020445C0008FC010020DD
:1009D0000C010020845C00085C5C00081C5C0008C2
:1009E000B80B000010270000645C00080000002025
:1009F000785C000890B59FB000AF40243B19180008
:100A000038231A00002105F02DF82C23FB181800BC
:100A100014231A00002105F025F83B1D1800282397
:100A20001A00002105F01EF82C4B1B682C4A1A40B6
:100A30002A4B802109010A431A6021007B181822E1
:100A40001A607B1801225A617B180122DA617B1837
:100A500000221A627B18802212025A627B1800223E
:100A60009A627B18180001F00FFC031E01D000F001
:100A700069F82C217B180F221A607B1800225A601B
:100A80007B1800229A607B180022DA607B18002213
:100A90001A617B180021180001F0CAFF031E01D063
:100AA00000F050F83B1D2D221A603B1D0022DA6039
:100AB0003B1D00225A613B1D00229A613B1D802292
:100AC00092025A603B1D180002F0B6F9031E01D0D5
:100AD00000F038F8C046BD461FB090BD0070004021
:100AE000FFE7FFFF80B582B000AF78600A00BB1C53
:100AF0001A807B681B68074A934206D1BB1C1A8880
:100B0000054B1100180004F072FEC046BD4602B04D
:100B100080BDC04600480040D000002080B582B0B3
:100B200000AF78607B681B68054A934204D17B68FC
:100B30001B68012252421A62C046BD4602B080BD07
:100B40000048004080B500AFC046BD4680BD0000F3
:100B500080B500AF164B174A1A60154B00225A6039
:100B6000134B7F229A60124BFF22DA60104B002257
:100B70001A610F4B00225A610D4B00229A610C4BF7
:100B80000022DA610A4B180002F0F4FA031E01D0C9
:100B9000FFF7D8FF0849064B0022180002F01CFCA2
:100BA000031E01D0FFF7CEFFC046BD4680BDC04644
:100BB0004C010020002800400B50000080B582B09E
:100BC00000AF78607B681B680A4A93420ED10A4BDB
:100BD0001A6D094B8021C9020A431A6500220021BF
:100BE000022000F01DFC022000F02FFCC046BD4694
:100BF00002B080BD002800400010024080B500AF68
:100C0000074B5A6B064B01210A435A63044B9A6BFC
:100C1000034B802149050A439A63C046BD4680BD07
:100C20000010024080B500AFC046FDE780B500AFC0
:100C3000C046FDE780B500AFC046BD4680BD80B56B
:100C400000AFC046BD4680BD80B500AF00F0DAFA07
:100C5000C046BD4680BD000080B500AF034B180004
:100C600002F0F6FCC046BD4680BDC0464C010020E7
:100C700080B500AF054B180000F0D7FD044B1800FD
:100C800000F0D3FDC046BD4680BDC046CC0200206A
:100C90008402002080B500AF054B180000F0C5FDB0
:100CA000044B180000F0C1FDC046BD4680BDC046E3
:100CB0005C0300201403002080B500AF034B180034
:100CC00002F034FFC046BD4680BDC046740100201E
:100CD00080B586B000AF7860144A154BD31A7B619B
:100CE0007B693B61134B1B68002B02D1114B124AED
:100CF0001A60104B1A687B68D3183A699A4207D277
:100D000004F0F4FE03000C221A6001235B4209E0A8
:100D1000084B1B68FB60074B1A687B68D218054BB1
:100D20001A60FB681800BD4606B080BD0050002068
:100D30000004000070010020F004002080B500AF26
:100D4000C046BD4680BD000080B500AF134B144ABD
:100D50001A60124BE12252025A60104B00229A6034
:100D60000E4B0022DA600D4B00221A610B4B0C2255
:100D70005A610A4B00229A61084B00221A62074B03
:100D800000225A62054B180002F09AFC031E01D0A3
:100D9000FFF7D8FEC046BD4680BDC04674010020A6
:100DA0000048004080B500AF144B154A1A60134B41
:100DB000962292015A60114B00229A600F4B00223A
:100DC000DA600E4B00221A610C4B0C225A610B4B5D
:100DD00000229A61094B0022DA61084B00221A6254
:100DE000064B00225A62054B180002F069FC031EF4
:100DF00001D0FFF7A7FEC046BD4680BDFC01002024
:100E00000038014090B58BB000AF786014243B19D6
:100E1000180014231A00002104F024FE7B681B68CC
:100E2000874A934200D084E0864B9A6B854B8021A1
:100E3000C9020A439A63834BDA6A824B01210A434F
:100E4000DA62804BDB6A012213403B613B6921007F
:100E50007B180C221A607B1802225A607B18002231
:100E60009A607B180322DA607B1806221A617A18CE
:100E7000A023DB051100180000F0BEFD724B734A81
:100E80001A60714B05225A606F4B00229A606E4BBC
:100E90000022DA606C4B80221A616B4B00225A618F
:100EA000694B00229A61684B0022DA61664B00228E
:100EB0001A62654B180000F0F5FA031E01D0FFF727
:100EC00041FE7B68604A5A675F4B7A689A62604B62
:100ED000604A1A605E4B05225A605D4B10229A6090
:100EE0005B4B0022DA605A4B80221A61584B002279
:100EF0005A61574B00229A61554B0022DA61544BDC
:100F000000221A62524B180000F0CCFA031E01D0E6
:100F1000FFF718FE7B684E4A1A674D4B7A689A6253
:100F2000002200211D2000F07BFA1D2000F08DFA28
:100F300082E07B681B68484A934200D07CE0414BCA
:100F40005A6B404B8021C9010A435A633D4BDA6A10
:100F50003C4B01210A43DA623A4BDB6A012213401F
:100F6000FB60FB6814217B18C022D2001A607B183A
:100F700002225A607B1800229A607B180322DA60F2
:100F80007B1804221A617A18A023DB0511001800CF
:100F900000F032FD314B324A1A60304B03225A6066
:100FA0002E4B00229A602D4B0022DA602B4B8022C0
:100FB0001A612A4B00225A61284B00229A61274B62
:100FC0000022DA61254B00221A62244B180000F03F
:100FD00069FA031E01D0FFF7B5FD7B681F4A5A6707
:100FE0001E4B7A689A621F4B1F4A1A601D4B0322E0
:100FF0005A601C4B10229A601A4B0022DA60194B7F
:1010000080221A61174B00225A61164B00229A6106
:10101000144B0022DA61134B00221A62114B1800A4
:1010200000F040FA031E01D0FFF78CFD7B680D4AEB
:101030001A670C4B7A689A62C046BD460BB090BDE9
:1010400000480040001002408402002030000240AE
:10105000CC0200201C000240003801401403002094
:10106000580002405C0300204400024080B582B07A
:1010700000AF78607B681B681E4A934219D11E4BF3
:101080009A6B1D4B1D490A409A63A023DB050C2176
:10109000180000F02FFE7B685B6F180000F07AFAF2
:1010A0007B681B6F180000F075FA1D2000F0DDF959
:1010B0001CE07B681B68124A934217D10E4B5A6B97
:1010C0000D4B10490A405A63C023DA00A023DB0508
:1010D0001100180000F00EFE7B685B6F180000F036
:1010E00059FA7B681B6F180000F054FAC046BD46E1
:1010F00002B080BD0048004000100240FFFFFBFF2F
:1011000000380140FFBFFFFF0D488546FFF716FE80
:101110000C480D490D4A002302E0D458C450043352
:10112000C4188C42F9D30A4A0A4C002301E0136028
:101130000432A242FBD304F0DFFCFFF7D1FBFEE751
:10114000005000200000002060000020205D00080A
:1011500060000020F0040020FEE7000080B582B0AF
:1011600000AFFB1D00221A700B4B1A680A4B40217E
:101170000A431A60002000F011F8031E03D0FB1D83
:1011800001221A7001E0FFF739FDFB1D1B781800E2
:10119000BD4602B080BDC0460020024090B583B07D
:1011A00000AF7860144B1C68144B1B781900FA23AD
:1011B0009800FEF7B1FF030019002000FEF7ACFF16
:1011C0000300180000F061F9031E01D001230FE0B5
:1011D0007B68032B0BD8796801235B42002218003F
:1011E00000F01EF9064B7A681A60002300E0012324
:1011F0001800BD4603B090BD040000200C00002084
:101200000800002080B500AF054B1B781A00054B85
:101210001B68D218034B1A60C046BD4680BDC0464D
:101220000C000020A403002080B500AF024B1B6817
:101230001800BD4680BDC046A403002080B584B020
:1012400000AF7860FFF7F0FF0300BB607B68FB60D6
:10125000FB68013305D00A4B1B781A00FB689B180A
:10126000FB60C046FFF7E0FF0200BB68D31AFA68D4
:101270009A42F7D8C046C046BD4604B080BDC046BD
:101280000C00002080B582B000AF0200FB1D1A7078
:10129000FB1D1B787F2B09D8FB1D1B781A001F2311
:1012A0001A40044B012191400A001A60C046BD4615
:1012B00002B080BD00E100E080B582B000AF020066
:1012C000FB1D1A70FB1D1B787F2B10D8FB1D1B7894
:1012D0001A001F231340084901229A40130080225C
:1012E0008B50BFF34F8FC046BFF36F8FC046C046D1
:1012F000BD4602B080BDC04600E100E090B583B0BD
:1013000000AF02003960FB1D1A70FB1D1B787F2B9C
:1013100028D82F4AFB1D1B785BB29B08C0339B006B
:101320009B58FA1D1278110003220A40D200FF21B7
:1013300091400A00D2431A4011003B689B01FF22F2
:101340001A40FB1D1B78180003230340DB009A4062
:101350001F48FB1D1B785BB29B080A43C0339B00F0
:101360001A5031E01B4AFB1D1B7819000F230B405C
:10137000083B9B0806339B00D31804331B68FA1DF7
:101380001278110003220A40D200FF2191400A0086
:10139000D2431A4011003B689B01FF221A40FB1DFB
:1013A0001B78180003230340DB009A400948FB1D0B
:1013B0001B781C000F232340083B9B080A4306337D
:1013C0009B00C31804331A60C046BD4603B090BDED
:1013D00000E100E000ED00E080B582B000AF786091
:1013E0007B685A1E80235B049A4201D3012310E0DC
:1013F0000A4B7A68013A5A6001235B4203211800C4
:10140000FFF77CFF054B00229A60044B07221A600D
:1014100000231800BD4602B080BDC04610E000E0C9
:1014200080B584B000AFB9607A600F217B18021CD0
:101430001A70BA687B181B785BB211001800FFF7AE
:101440005DFFC046BD4604B080BD80B582B000AF30
:101450000200FB1D1A70FB1D1B785BB21800FFF722
:1014600011FFC046BD4602B080BD80B582B000AF5E
:101470000200FB1D1A70FB1D1B785BB21800FFF702
:101480001BFFC046BD4602B080BD80B582B000AF34
:1014900078607B681800FFF79FFF03001800BD46C7
:1014A00002B080BD80B584B000AF78607B68002B4F
:1014B00001D1012361E07B681B68324A9446634492
:1014C00014211800FEF728FE03009A007B685A6476
:1014D0007B682D4A1A647B682522022199547B6817
:1014E0001B681B68FB60FB68284A1340FB607B6835
:1014F0009A687B68DB681A437B681B691A437B68C0
:101500005B691A437B689B691A437B68DB691A43F2
:101510007B681B6A1343FA681343FB607B681B6894
:10152000FA681A607B689A688023DB019A4218D0B7
:10153000174B1A687B685B6C1C210B400F2199408C
:101540000B00D943124B0A401A60114B19687B6893
:101550005A687B685B6C1C2003409A400C4B0A4322
:101560001A607B680022DA637B6825220121995486
:101570007B6824220021995400231800BD4604B042
:1015800080BDC046F8FFFDBF000002400F80FFFF96
:10159000A800024080B582B000AF78607B68002B65
:1015A00001D101234AE07B681B681A687B681B68CD
:1015B00001218A431A607B681B68224A944663446F
:1015C00014211800FEF7A8FD03009A007B685A64F6
:1015D0007B681D4A1A647B681B6800221A607B685E
:1015E0005B6C1C221A407B681B6C012191400A0035
:1015F0005A60164B1A687B685B6C1C210B400F21EC
:1016000099400B00D943114B0A401A607B680022B5
:10161000DA627B6800221A637B6800225A637B6867
:1016200000229A637B680022DA637B68252200210E
:1016300099547B6824220021995400231800BD4648
:1016400002B080BDF8FFFDBF00000240A8000240CC
:1016500080B586B000AFF860B9607A603B60172350
:10166000FB1800221A70FB6824229B5C012B01D11D
:1016700002234FE0FB68242201219954FB682522B4
:101680009B5CDBB2012B3AD1FB68252202219954E5
:10169000FB680022DA63FB681B681A68FB681B683A
:1016A00001218A431A603B687A68B968F86800F0DB
:1016B00074F9FB681B6B002B08D0FB681B681A6869
:1016C000FB681B680E210A431A600FE0FB681B6869
:1016D0001A68FB681B6804218A431A60FB681B6850
:1016E0001A68FB681B680A210A431A60FB681B68BA
:1016F0001A68FB681B6801210A431A6007E0FB684F
:101700002422002199541723FB1802221A70172350
:10171000FB181B781800BD4606B080BD80B584B0AC
:1017200000AF78600F23FB1800221A707B68252217
:101730009B5CDBB2022B08D07B680422DA637B68F7
:10174000242200219954012324E07B681B681A6835
:101750007B681B680E218A431A607B681B681A68C5
:101760007B681B6801218A431A607B685B6C1C22C2
:101770001A407B681B6C012191400A005A607B680B
:101780002522012199547B682422002199540F239A
:10179000FB181B781800BD4604B080BD80B584B02E
:1017A00000AF78600F217B1800221A707B68252219
:1017B0009B5CDBB2022B06D07B680422DA637B18C9
:1017C00001221A702AE07B681B681A687B681B6814
:1017D0000E218A431A607B681B681A687B681B6845
:1017E00001218A431A607B685B6C1C221A407B686B
:1017F0001B6C012191400A005A607B68252201215F
:1018000099547B682422002199547B689B6B002BA0
:1018100004D07B689B6B7A68100098470F23FB18F5
:101820001B781800BD4604B080BD80B584B000AF01
:1018300078607B681B6C1B68FB607B681B681B689F
:10184000BB607B685B6C1C22134004229A4013002F
:10185000FA68134026D0BB680422134022D07B686C
:101860001B681B682022134007D17B681B681A681D
:101870007B681B6804218A431A607B685B6C1C22AE
:101880001A407B681B6C042191400A005A607B68F7
:101890001B6B002B00D171E07B681B6B7A6810001A
:1018A00098476BE07B685B6C1C22134002229A40D5
:1018B0001300FA6813402DD0BB680222134029D0D0
:1018C0007B681B681B68202213400BD17B681B6858
:1018D0001A687B681B680A218A431A607B68252284
:1018E000012199547B685B6C1C221A407B681B6C3D
:1018F000022191400A005A607B68242200219954F9
:101900007B68DB6A002B39D07B68DB6A7A68100061
:10191000984733E07B685B6C1C22134008229A4096
:101920001300FA6813402AD0BB680822134026D05F
:101930007B681B681A687B681B680E218A431A60E3
:101940007B685B6C1C221A407B681B6C01219140F8
:101950000A005A607B680122DA637B682522012134
:1019600099547B682422002199547B685B6B002B7F
:1019700005D07B685B6B7A6810009847C046C0460C
:10198000BD4604B080BD80B582B000AF78607B6892
:10199000DB6B1800BD4602B080BD80B584B000AFDF
:1019A000F860B9607A603B60FB685B6C1C221A408F
:1019B000FB681B6C012191400A005A60FB681B68A0
:1019C0003A685A60FB689B68102B08D1FB681B685B
:1019D0007A689A60FB681B68BA68DA6007E0FB689F
:1019E0001B68BA689A60FB681B687A68DA60C04650
:1019F000BD4604B080BD000080B586B000AF786001
:101A0000396000237B610023FB6000233B6155E1CB
:101A10003B681B6801217A6991400A001340FB6012
:101A2000FB68002B00D146E13B685B680322134052
:101A3000012B05D03B685B6803221340022B30D199
:101A40007B689B683B617B695B0003229A401300C3
:101A5000DA433B6913403B613B68DA687B695B00B2
:101A60009A4013003A6913433B617B683A699A6074
:101A70007B685B683B6101227B699A401300DA4313
:101A80003B6913403B613B685B681B0901221A40BC
:101A90007B699A4013003A6913433B617B683A695A
:101AA0005A603B685B6803221340032B17D07B68A6
:101AB000DB683B617B695B0003229A401300DA43D9
:101AC0003B6913403B613B689A687B695B009A40C5
:101AD00013003A6913433B617B683A69DA603B68FB
:101AE0005B6803221340022B23D17B69DA087B68F1
:101AF00008329200D3583B617B69072213409B0058
:101B00000F229A401300DA433B6913403B613B6864
:101B10001A697B6907210B409B009A4013003A69C0
:101B200013433B617B69DA087B68083292003969AC
:101B3000D1507B681B683B617B695B0003229A4044
:101B40001300DA433B6913403B613B685B68032247
:101B50001A407B695B009A4013003A6913433B616A
:101B60007B683A691A603B685A68C0239B0213403D
:101B700000D1A0E0574B5A6B564B01210A435A63E0
:101B8000554A7B699B0802339B009B583B617B69EC
:101B9000032213409B000F229A401300DA433B6953
:101BA00013403B617A68A023DB059A421FD07B6813
:101BB0004A4A934219D07B68494A934213D07B68C2
:101BC000484A93420DD07B68474A934207D07B68CE
:101BD000464A934201D105230AE0062308E0042384
:101BE00006E0032304E0022302E0012300E00023D7
:101BF0007A6903210A40920093403A6913433B619A
:101C000035497B699B0802339B003A695A50384B2F
:101C10009B683B61FB68DA433B6913403B613B686F
:101C20005A6880235B03134003D03A69FB6813436F
:101C30003B612F4B3A699A602D4BDB683B61FB6837
:101C4000DA433B6913403B613B685A6880239B033E
:101C5000134003D03A69FB6813433B61244B3A6954
:101C6000DA60234B5B683B61FB68DA433B691340F6
:101C70003B613B685A6880239B02134003D03A695A
:101C8000FB6813433B611A4B3A695A60184B1B6857
:101C90003B61FB68DA433B6913403B613B685A6830
:101CA00080235B02134003D03A69FB6813433B6116
:101CB0000F4B3A691A607B6901337B613B681A6894
:101CC0007B69DA40131E00D0A2E6C046C046BD467E
:101CD00006B080BD0010024000000140000400502A
:101CE00000080050000C005000100050001C005074
:101CF0000004014080B586B000AF786039600023F1
:101D00007B6100233B610023FB60BCE001227B6917
:101D10009A403B6813403B613B69002B00D1AFE028
:101D20005E4A7B699B0802339B009B58FB607B6982
:101D3000032213409B000F229A40FB681340FB6074
:101D40007A68A023DB059A421FD07B68544A9342ED
:101D500019D07B68534A934213D07B68524A93420E
:101D60000DD07B68514A934207D07B68504A93421A
:101D700001D105230AE0062308E0042306E003233B
:101D800004E0022302E0012300E000237A6903213A
:101D90000A4092009340FA689A4232D1454B1A6841
:101DA0003B69D943434B0A401A60424B5A683B692E
:101DB000D943404B0A405A603E4BDA683B69D943ED
:101DC0003C4B0A40DA603B4B9A683B69D943394B3C
:101DD0000A409A607B69032213409B000F229A40BD
:101DE0001300FB602D4A7B699B0802339B009A58C5
:101DF000FB68D94329487B699B080A4002339B0052
:101E00001A507B681A687B695B00032199400B00BC
:101E10001A437B681A607B69DA087B680832920093
:101E2000D3587A6907210A4092000F2191400A0095
:101E3000D1437A69D20819407B6808329200D150A8
:101E40007B68DB687A695200032191400A00D24323
:101E50001A407B68DA607B685B6801217A6991408F
:101E60000A00D2431A407B685A607B689B687A6993
:101E70005200032191400A00D2431A407B689A60C5
:101E80007B6901337B613A687B69DA40131E00D0BD
:101E90003CE7C046C046BD4606B080BD00000140DC
:101EA0000004005000080050000C005000100050CA
:101EB000001C00500004014080B582B000AF786083
:101EC00008001100BB1C021C1A807B1C0A1C1A7023
:101ED0007B1C1B78002B04D0BB1C1A887B689A6182
:101EE00003E0BB1C1A887B689A62C046BD4602B0FC
:101EF00080BD000080B582B000AF78607B68002BA9
:101F000001D101238FE07B6841229B5CDBB2002B77
:101F100007D17B684022002199547B681800FEF7A6
:101F200063FB7B684122242199547B681B681A68F3
:101F30007B681B6801218A431A607B685A687B684A
:101F40001B683B490A401A617B681B689A687B687A
:101F50001B6838490A409A607B68DB68012B08D10E
:101F60007B689A687B681B68802109020A439A6033
:101F700007E07B689A687B681B68842109020A4332
:101F80009A607B68DB68022B09D17B681B685A6802
:101F90007B681B68802109010A435A6007E07B685F
:101FA0001B685A687B681B6823490A405A607B6833
:101FB0001B685A687B681B6820490A435A607B6823
:101FC0001B68DA687B681B681A490A40DA607B681C
:101FD0001A697B685B691A4311007B689B691A0266
:101FE0007B681B680A43DA607B68D9697B681A6A78
:101FF0007B681B680A431A607B681B681A687B68E9
:102000001B6801210A431A607B6800225A647B68BE
:102010004122202199547B6800221A637B68422266
:102020000021995400231800BD4602B080BDC0466F
:10203000FFFFFFF0FF7FFFFFFFF7FFFF00800002C1
:1020400080B582B000AF78607B68002B01D101239E
:1020500022E07B684122242199547B681B681A681E
:102060007B681B6801218A431A607B681800FEF7B1
:10207000FFFA7B6800225A647B6841220021995450
:102080007B6800221A637B684222002199547B6896
:1020900040220021995400231800BD4602B080BDA3
:1020A00080B582B000AF786039607B6841229B5C6C
:1020B000DBB2202B38D17B6840229B5C012B01D105
:1020C000022332E07B684022012199547B6841223F
:1020D000242199547B681B681A687B681B6801215E
:1020E0008A431A607B681B681A687B681B68114901
:1020F0000A401A607B681B6819687B681B683A682D
:102100000A431A607B681B681A687B681B68012198
:102110000A431A607B684122202199547B6840223F
:1021200000219954002300E002231800BD4602B0AC
:1021300080BDC046FFEFFFFF80B584B000AF786080
:1021400039607B6841229B5CDBB2202B39D17B68F4
:1021500040229B5C012B01D1022333E07B684022AB
:10216000012199547B684122242199547B681B6882
:102170001A687B681B6801218A431A607B681B68A8
:102180001B68FB60FB68114A1340FB603B681B0245
:10219000FA681343FB607B681B68FA681A607B6807
:1021A0001B681A687B681B6801210A431A607B68F8
:1021B0004122202199547B68402200219954002318
:1021C00000E002231800BD4604B080BDFFF0FFFF11
:1021D00080B586B000AF78600A00FB1C1A7000233F
:1021E0007B61254B1A6880239B0013403B61234B86
:1021F0001B6A01221340FB603B69002B08D0FB687F
:10220000002B05D01C4B1A681B4B1D490A401A6055
:10221000194B1B687B617B69032293437B617A695D
:102220007B6813437B61144B7A691A60154B1A69FA
:10223000144B04210A431A61FB1C1B78012B01D1AA
:1022400030BF02E040BF20BF20BF0E4B1A690D4BCC
:1022500004218A431A613B69002B09D0FB68002BDB
:1022600006D0054B1A68044B802189000A431A6086
:10227000C046BD4606B080BD007000400000014071
:10228000FFFDFFFF00ED00E0B0B58AB000AF786061
:102290007B68002B02D1012300F0BFFBC94BDB6838
:1022A0000C221340FB61C74BDA6880235B021340AA
:1022B000BB617B681B680122134000D17EE0FB6993
:1022C000082B07D0FB690C2B12D1BA6980235B0263
:1022D0009A420DD1BB4B1A6880239B02134000D158
:1022E0006BE07B685B68002B67D1012300F095FBF6
:1022F0007B685A6880235B029A4207D1B14B1A6807
:10230000B04B802149020A431A6027E07B685A6873
:10231000A023DB029A420ED1AA4B1A68A94B802156
:10232000C9020A431A60A74B1A68A64B80214902CA
:102330000A431A6012E0A34B1A68A24BA2490A4052
:102340001A60A04B1A6880235B021340FB60FB6895
:102350009C4B1A689B4B9D490A401A607B685B68DE
:10236000002B15D0FEF760FF03007B6109E0FEF74C
:102370005BFF02007B69D31A642B02D9032300F0B0
:102380004CFB904B1A6880239B021340EFD015E062
:10239000FEF74AFF03007B6108E0FEF745FF0200FD
:1023A0007B69D31A642B01D9032336E3854B1A6862
:1023B00080239B021340F0D100E0C0467B681B687D
:1023C0000222134000D199E07B68DB687B627B6A64
:1023D0002022134009D07B4B1A687A4B20210A43F4
:1023E0001A607B6A202293437B62FB69042B05D031
:1023F000FB690C2B3ED1BB69002B3BD1714B1B6899
:102400000422134004D07B6A002B01D1012304E392
:102410006C4B5B686E4A134019007B681B691A029B
:10242000684B0A435A60674B1B68092293431900A3
:10243000644B7A6A0A431A6000F042FC0100614B67
:10244000DB681B090F221340624AD35C0A00DA40A2
:10245000614B1A60614B1B6813257C191800FEF74D
:102460009DFE030023707B191B78002B46D07B193F
:102470001B78D2E27B6A002B27D0524B1B680922C3
:10248000934319004F4B7A6A0A431A60FEF7CCFE59
:1024900003007B6108E0FEF7C7FE02007B69D31AE8
:1024A000022B01D90323B8E2464B1B6804221340D8
:1024B000F1D0444B5B68464A134019007B681B69A6
:1024C0001A02404B0A435A6018E03E4B1A683D4BD3
:1024D00001218A431A60FEF7A7FE03007B6108E032
:1024E000FEF7A2FE02007B69D31A022B01D9032357
:1024F00093E2344B1B6804221340F1D17B681B68C4
:102500001022134000D1A2E0FB69002B40D12D4BDB
:102510001A6880239B00134005D07B68DB69002B81
:1025200001D1012379E2274B5B682D4A1340190042
:102530007B685A6A234B0A435A60224B5B681B0232
:10254000190A7B681B6A1A061E4B0A435A607B688D
:102550005B6A5B0B0133802212029A40194BDB68E5
:102560001B090F210B401B49CB5CDA401A4B1A6048
:102570001A4B1B6813257C191800FEF70FFE030089
:1025800023707B191B78002B61D07B191B7844E2E8
:102590007B68DB69002B40D00A4B1A68094B80210D
:1025A00049000A431A60FEF73FFE03007B6119E011
:1025B000FEF73AFE02007B69D31A022B12D90323DD
:1025C0002BE2C04600100240FFFFFEFFFFFFFBFFB3
:1025D000FFE0FFFFA45C00080400002008000020CA
:1025E000FF1FFFFFCA4B1A6880239B001340DFD0F8
:1025F000C74B5B68C74A134019007B685A6AC44BD3
:102600000A435A60C24B5B681B02190A7B681B6A4B
:102610001A06BF4B0A435A6019E0BD4B1A68BC4BFF
:10262000BD490A401A60FEF7FFFD03007B6108E028
:10263000FEF7FAFD02007B69D31A022B01D90323AE
:10264000EBE1B34B1A6880239B001340F0D17B6809
:102650001B680822134036D07B685B69002B19D0B9
:10266000AB4B1A6DAA4B01210A431A65FEF7DCFD3C
:1026700003007B6108E0FEF7D7FD02007B69D31AF7
:10268000022B01D90323C8E1A14B1B6D0222134089
:10269000F1D018E09E4B1A6D9D4B01218A431A65BB
:1026A000FEF7C2FD03007B6108E0FEF7BDFD0200FE
:1026B0007B69D31A022B01D90323AEE1944B1B6D26
:1026C00002221340F1D17B681B680422134000D121
:1026D000AEE023203B1800221A708D4B9A6B8023AA
:1026E0005B05134009D18A4B9A6B894B80214905C0
:1026F0000A439A633B1801221A70884B1A68802398
:102700005B0013401AD1854B1A68844B8021490025
:102710000A431A60FEF788FD03007B6108E0FEF7BC
:1027200083FD02007B69D31A642B01D9032374E172
:102730007A4B1A6880235B001340F0D07B689A685C
:1027400080235B009A4207D1714B1A6D704B802138
:1027500049000A431A6531E07B689B68002B0CD165
:102760006B4B1A6D6A4B6C490A401A65684B1A6DBF
:10277000674B6B490A401A6520E07B689A68A02382
:10278000DB009A420ED1624B1A6D614B8021C90069
:102790000A431A655E4B1A6D5D4B802149000A435E
:1027A0001A650BE05A4B1A6D594B5B490A401A6582
:1027B000574B1A6D564B5A490A401A657B689B68FD
:1027C000002B15D0FEF730FD03007B6109E0FEF71A
:1027D0002BFD02007B69D31A524A934201D903238D
:1027E0001BE14B4B1A6D80239B001340EFD014E08C
:1027F000FEF71AFD03007B6109E0FEF715FD0200FC
:102800007B69D31A474A934201D9032305E1404B20
:102810001A6D80239B001340EFD12323FB181B78F4
:10282000012B05D13A4B9A6B394B3F490A409A63C9
:102830007B681B682022134049D07B689B69002B72
:1028400026D0334B9A68324B01210A439A60304BB1
:102850005A6B2F4B01210A435A63344B1A6A334B8C
:10286000802189010A431A62FEF7DEFC03007B61C6
:1028700008E0FEF7D9FC02007B69D31A022B01D9CC
:102880000323CAE0224B9B6802221340F1D01EE0D2
:102890001F4B9A681E4B01218A439A60234B1A6A88
:1028A000224B23490A401A62FEF7BEFC03007B61FB
:1028B00008E0FEF7B9FC02007B69D31A022B01D9AC
:1028C0000323AAE0124B9B6802221340F1D17B68DC
:1028D0009B6A002B00D19FE0FB690C2B00D178E0B4
:1028E0007B689B6A022B59D1094B1A68084B114926
:1028F0000A401A60FEF798FC03007B611CE0FEF7BB
:1029000093FC02007B69D31A022B15D9032384E0C0
:1029100000100240FF1FFFFFFFFEFFFF007000409E
:10292000FFFBFFFF88130000FFFFFFEF00000140E7
:10293000FFDFFFFFFFFFFFFE3A4B1A6880239B0477
:102940001340DCD1374BDB68374A134019007B68F2
:10295000DA6A7B681B6B1A437B685B6B1A43314BEB
:102960000A43DA602F4B1A682E4B802149040A4330
:102970001A60FEF759FC03007B6108E0FEF754FC87
:1029800002007B69D31A022B01D9032345E0254BB2
:102990001A6880239B041340F0D03DE0214B1A6855
:1029A000204B22490A401A60FEF73EFC03007B617F
:1029B00008E0FEF739FC02007B69D31A022B01D92B
:1029C00003232AE0174B1A6880239B041340F0D19D
:1029D00022E07B689B6A012B01D101231DE0114B92
:1029E000DB68BB61BA6980235B021A407B68DB6AE3
:1029F0009A420FD1BA69F0239B031A407B681B6B84
:102A00009A4207D1BA69C0231B041A407B685B6BEA
:102A10009A4201D0012300E000231800BD460AB00D
:102A2000B0BDC04600100240FFFF02FFFFFFFFFEE7
:102A3000B0B584B000AF786039607B68002B01D1FD
:102A4000012328E1964B1B68012213403A689A4201
:102A50001ED9934B1B68012293431900904B3A688F
:102A60000A431A60FEF7E0FB0300FB6009E0FEF793
:102A7000DBFB0200FB68D31A8A4A934201D9032385
:102A800009E1874B1B68012213403A689A42EED154
:102A90007B681B680222134009D0834BDB68F0225D
:102AA000934319007B689A687F4B0A43DA607B681E
:102AB0001B680122134000D189E07B685B68022B10
:102AC00007D1794B1A6880239B02134020D1012340
:102AD000E1E07B685B68032B07D1734B1A688023A6
:102AE0009B04134014D10123D5E07B685B68012B64
:102AF00006D16D4B1B680422134009D10123CAE0A3
:102B0000694B1A6880239B00134001D10123C2E066
:102B1000654BDB680322934319007B685A68624B5C
:102B20000A43DA60FEF780FB0300FB607B685B68AA
:102B3000022B11D109E0FEF777FB0200FB68D31AE4
:102B4000584A934201D90323A5E0574BDB680C2276
:102B50001340082BEFD13AE07B685B68032B11D15F
:102B600009E0FEF761FB0200FB68D31A4D4A93426D
:102B700001D903238FE04C4BDB680C2213400C2B54
:102B8000EFD124E07B685B68012B1BD109E0FEF7E5
:102B90004BFB0200FB68D31A424A934201D903233C
:102BA00079E0414BDB680C221340042BEFD10EE09F
:102BB000FEF73AFB0200FB68D31A3A4A934201D966
:102BC000032368E0384BDB680C221340F0D1344B10
:102BD0001B68012213403A689A421ED2304B1B6890
:102BE0000122934319002E4B3A680A431A60FEF7FC
:102BF0001BFB0300FB6009E0FEF716FB0200FB680D
:102C0000D31A284A934201D9032344E0244B1B687A
:102C1000012213403A689A42EED17B681B68042275
:102C2000134009D0204BDB68204A134019007B6811
:102C3000DA681D4B0A43DA607B681B680822134080
:102C40000AD0194BDB681A4A134019007B681B69CC
:102C5000DA00154B0A43DA6000F032F80100124B3B
:102C6000DB681B090F221340124AD35C0A00DA40CA
:102C7000114B1A60114B1B680B257C191800FEF7CD
:102C80008DFA030023707B191B78002B02D07B196F
:102C90001B7800E000231800BD4604B0B0BDC0465C
:102CA000002002408813000000100240FFF8FFFFE0
:102CB000FFC7FFFFA45C00080400002008000020FC
:102CC00080B586B000AF3C4BDB68FB60FB680C2234
:102CD00013400C2B13D05CD8042B02D0082B0BD044
:102CE00057E0354B1B681022134002D0334B3B6139
:102CF0005DE0334B3B615AE0324B3B6157E0FB6890
:102D00009B0C0F221340304AD35CBB60FB689B0DC9
:102D10000322134001337B60274BDA6880235B0278
:102D200013400FD0B9680A005201521A93019B1A3E
:102D3000DB005B185B0279681800FDF7EDF9030012
:102D40007B6123E01C4B1B68102213400FD0B96835
:102D50000A005201521A93019B1ADB005B181B02F6
:102D600079681800FDF7D8F903007B610EE0B968B7
:102D70000A005201521A93019B1ADB005B189B0256
:102D800079681800FDF7C8F903007B617B693B6136
:102D90000DE0094B5B685B0B072213403B603B680F
:102DA0000133802212029A4013003B61C0463B6906
:102DB0001800BD4606B080BD0010024000093D006D
:102DC0000024F40000127A00BC5C000880B500AF5B
:102DD000024B1B681800BD4680BDC04604000020A1
:102DE00080B500AFFFF7F2FF0100064BDB681B0A5E
:102DF00007221340044AD35CD9400B001800BD469B
:102E000080BDC04600100240B45C000880B500AF31
:102E1000FFF7DCFF0100064BDB68DB0A07221340EB
:102E2000044AD35CD9400B001800BD4680BDC046A3
:102E300000100240B45C000880B586B000AF786036
:102E40001723FB1800221A707B681B68202213408E
:102E500006D17B681A6880231B01134000D104E16E
:102E6000B94B9A6B80235B0513400AD1B64B9A6B22
:102E7000B54B802149050A439A631723FB180122A9
:102E80001A70B24B1A6880235B0013401AD1AF4B03
:102E90001A68AE4B802149000A431A60FEF7C4F954
:102EA00003003B6108E0FEF7BFF902003B69D31A5B
:102EB000642B01D9032343E1A44B1A6880235B00F0
:102EC0001340F0D0A04B1A68C0239B031340FB6053
:102ED0007B685A68C0239B031340FA689A4207D163
:102EE0007B689A68C0239B031340FA689A4213D008
:102EF0007B685A68C0239B021A40C0239B029A42F7
:102F00000AD1914B1A6880239B021A4080239B02AE
:102F10009A4201D1012313E18B4B1A6DC0239B020E
:102F20001340FB60FB68002B49D07B685A68C023C4
:102F30009B021340FA689A4204D07B681B682022E7
:102F400013400DD17B689A68C0239B021340FA6836
:102F50009A4234D07B681A6880231B0113402ED01C
:102F6000794B1B6D7A4A1340FB60774B1A6D764B99
:102F7000802109030A431A65734B1A6D724B754918
:102F80000A401A65704BFA681A65FA6880235B007C
:102F9000134014D0FEF748F903003B6109E0FEF747
:102FA00043F902003B69D31A6B4A934201D90323C8
:102FB000C6E0654B1A6D80239B001340EFD07B6801
:102FC0001A6880231B0113401FD07B689A68C023B6
:102FD0009B021A40C0239B029A420CD15A4B1B6899
:102FE0005E4A134019007B689A68C0239B031A400D
:102FF000554B0A431A60544B196D7B689A68C0237D
:103000009B021A40504B0A431A657B681B682022BA
:1030100013401FD07B685A68C0239B021A40C0230C
:103020009B029A420CD1484B1B684C4A1340190032
:103030007B685A68C0239B031A40434B0A431A60BB
:10304000414B196D7B685A68C0239B021A403E4B66
:103050000A431A651723FB181B78012B05D13A4B3D
:103060009A6B394B3E490A409A637B681B68012280
:10307000134009D0344BDB6C0322934319007B6867
:10308000DA68314B0A43DA647B681B68022213401A
:1030900009D02D4BDB6C0C22934319007B681A6915
:1030A000294B0A43DA647B681B680422134009D069
:1030B000254BDB6C2B4A134019007B685A69224B65
:1030C0000A43DA647B681B680822134009D01E4B50
:1030D000DB6C254A134019007B689A691A4B0A4336
:1030E000DA647B681A6880235B00134009D0164BB2
:1030F000DB6C174A134019007B68DA69124B0A43EC
:10310000DA647B681B684022134009D00E4BDB6CED
:10311000164A134019007B685A6A0B4B0A43DA645B
:103120007B681B688022134009D0074BDB6C104A78
:10313000134019007B681A6A034B0A43DA640023C0
:103140001800BD4606B080BD00100240007000406F
:10315000FFFFFCFFFFFFF7FF88130000FFFFCFFF1B
:10316000FFFFFFEFFFF3FFFFFFCFFFFFFFFFFFFBBF
:10317000FFFFF3FFB0B584B000AF78600F23FB18FA
:1031800001221A707B68002B01D1012388E07B6843
:1031900021229B5CDBB2002B07D17B68202200211F
:1031A00099547B681800FDF709FD7B6821220221F4
:1031B00099547B681B68DB6810221340102B5FD08A
:1031C0007B681B68CA225A627B681B6853225A625A
:1031D0000F257C197B68180000F090F8030023701D
:1031E00028003B181B78002B2CD17B681B689A6841
:1031F0007B681B682C490A409A607B681B68996849
:103200007B685A687B681B691A437B689B691A4311
:103210007B681B680A439A607B681B687A68D2687F
:103220001A617B681B6819697B689B681A047B6854
:103230001B680A431A613C187B68180000F0A2F86A
:10324000030023700F23FB181B78002B13D17B681E
:103250001B68DA6C7B681B6803218A43DA647B682D
:103260001B68D96C7B68DA697B685B691A437B6889
:103270001B680A43DA647B681B68FF225A6203E01A
:103280000F23FB1800221A700F23FB181B78002B4A
:1032900003D17B682122012199540F23FB181B784D
:1032A0001800BD4604B0B0BDBFFF8FFF80B584B02D
:1032B00000AF78600023FB607B681B680E4ADA6011
:1032C000FDF7B2FF0300FB600AE0FDF7ADFF02006F
:1032D000FB68D21AFA239B009A4201D9032306E025
:1032E0007B681B68DB6820221340EED000231800A7
:1032F000BD4604B080BDC0465FFF010080B584B00C
:1033000000AF78600023BB600F23FB1800221A7007
:103310007B681B68DB68402213402CD17B681B68EC
:10332000DA687B681B6880210A43DA60FDF77CFF5E
:103330000300BB6014E0FDF777FF0200BB68D21A00
:103340000F203B18391809781970FA239B009A420C
:1033500006D97B682122042199543B1801221A7056
:103360007B681B68DB684022134004D10F23FB18E5
:103370001B78012BDFD10F23FB181B781800BD46EB
:1033800004B080BD90B585B000AF78600F243B19C4
:1033900000221A707B681B68DA687B681B688021D2
:1033A0008A43DA607B681B689B68202213400CD13B
:1033B0007B681800FFF77AFF031E06D07B68212286
:1033C000042199543B1901221A700F23FB181B7812
:1033D0001800BD4605B090BD80B586B000AFF8605E
:1033E000B9607A60644B1B68FA22D1011800FCF7BF
:1033F00093FE03001A0013005B019B1A9B009B18AD
:10340000DB007B61FB6820229B5C012B01D1022346
:10341000ADE0FB68202201219954FB6821220221A2
:103420009954FB681B68CA225A62FB681B685322C6
:103430005A62FB681B689A688023DB00134019D02E
:103440007B69013B7B617B69002B0DD1FB681B68AD
:10345000FF225A62FB68212203219954FB68202233
:1034600000219954032382E0FB681B68DB68042277
:103470001340E5D1FB681B689A68FB681B683F49ED
:103480000A409A60FB681B68DB68FF221A40FB68F1
:103490001B683B490A43DA60374B1B68FA22D101AB
:1034A0001800FCF739FE03001A0013005B019B1A99
:1034B0009B009B18DB007B617B69013B7B617B6927
:1034C000002B0DD1FB681B68FF225A62FB6821228A
:1034D00003219954FB68202200219954032346E0DC
:1034E000FB681B68DB6804221340E5D0FB681B689F
:1034F0009A68FB681B6807218A439A60FB681B680F
:103500009968FB681B687A680A439A60FB681B68C5
:10351000BA685A611B4B1A681A4B802149030A4347
:103520001A60184B9A68174B802149030A439A6026
:10353000FB681B689A68FB681B688021C9010A4305
:103540009A60FB681B689A68FB681B688021C90049
:103550000A439A60FB681B68FF225A62FB682122BB
:1035600001219954FB68202200219954002318005E
:10357000BD4606B080BDC04604000020FFFBFFFF33
:103580007FFBFFFF0004014080B584B000AF78608E
:103590000023FB607B6820229B5C012B01D102236E
:1035A0004EE07B682022012199547B682122022170
:1035B00099547B681B68CA225A627B681B68532235
:1035C0005A627B681B689A687B681B681E490A40C0
:1035D0009A607B681B689A687B681B681B490A4075
:1035E0009A60FDF721FE0300FB6016E0FDF71CFE6C
:1035F0000200FB68D21AFA239B009A420DD97B681D
:103600001B68FF225A627B682122032199547B6840
:10361000202200219954032312E07B681B68DB6899
:1036200004221340E2D07B681B68FF225A627B6849
:103630002122012199547B682022002199540023E2
:103640001800BD4604B080BDFFFBFFFFFFBFFFFFBA
:1036500080B582B000AF7860134B802252035A616C
:103660007B681B689A688023DB01134014D07B6859
:103670001B68DA688023DB0013400DD07B681B6871
:10368000DB68FF221A407B681B6808490A43DA603E
:103690007B68180000F00CF87B6821220121995406
:1036A000C046BD4602B080BD000401407FFBFFFF65
:1036B00080B582B000AF7860C046BD4602B080BD24
:1036C00080B582B000AF78607B68002B01D1012308
:1036D00044E07B68DB6F002B07D17B6878220021F8
:1036E00099547B681800FDF78DFB7B682422DA670C
:1036F0007B681B681A687B681B6801218A431A6013
:103700007B685B6A002B03D07B68180000F0EAFF3F
:103710007B68180000F048FD0300012B01D1012354
:103720001CE07B681B685A687B681B680D490A406F
:103730005A607B681B689A687B681B682A218A43E9
:103740009A607B681B681A687B681B6801210A43C2
:103750001A607B68180001F079F803001800BD4674
:1037600002B080BDFFB7FFFF80B582B000AF7860C8
:103770007B68002B01D1012330E07B682422DA67CB
:103780007B681B681A687B681B6801218A431A6082
:103790007B681B6800221A607B681B6800225A60E5
:1037A0007B681B6800229A607B681800FDF75EFC4E
:1037B0007B688422002199507B680022DA677B684D
:1037C0008022002199507B6800221A667B680022C3
:1037D0005A667B6878220021995400231800BD4660
:1037E00002B080BD80B588B000AFF860B960BB1D85
:1037F0001A80FB68DB6F202B00D077E0BB68002BC2
:1038000003D0BB1D1B88002B01D101236FE0FB6897
:103810009A6880235B019A4209D1FB681B69002BDF
:1038200005D1BB680122134001D001235FE0FB6892
:10383000BA68DA64FB68BA1D502112885A52FB68D4
:10384000BA1D522112885A52FB68842200219950D5
:10385000FB682122DA67FB681B6F002B27D0FB680F
:103860001B6F254ADA62FB681B6F244A1A63FB68E8
:103870001B6F234A5A63FB681B6F00229A63FB6825
:10388000186FFB68DB6C1900FB681B6828331A0093
:10389000BB1D1B88FDF7DCFE031E08D0FB688422DD
:1038A00010219950FB682022DA6701231FE0FB6892
:1038B0001B6840221A62EFF310833B613B69FB6196
:1038C00001237B617B6983F31088C046FB681B681A
:1038D0009A68FB681B6880210A439A60FB69BB6198
:1038E000BB6983F31088C046002300E00223180060
:1038F000BD4608B080BDC046CD4C0008654D0008EF
:103900006B4F000880B58AB000AF7860EFF310838A
:103910007B617B697B620123BB61BB6983F3108898
:10392000C0467B681B681A687B681B68C0218A4395
:103930001A607B6AFB61FB6983F31088C0467B6871
:103940001B689B6880221340802B35D1EFF31083D6
:10395000BB60BB683B620123FB60FB6883F310889C
:10396000C0467B681B689A687B681B6880218A4315
:103970009A603B6A3B613B6983F31088C0467B6871
:103980001B6F002B18D07B681B6F00229A637B682B
:103990001B6F1800FDF7C2FE031E0DD07B681B6F66
:1039A0001800FDF7F0FF0300202B05D17B6884226F
:1039B00010219950032307E07B685222002199527D
:1039C0007B682022DA6700231800BD460AB080BD5C
:1039D00080B592B000AF7860EFF310833B623B6A32
:1039E0007B6401237B627B6A83F31088C0467B681B
:1039F0001B681A687B681B684B490A401A607B6C1D
:103A0000BB62BB6A83F31088C046EFF31083FB628E
:103A1000FB6A3B6401233B633B6B83F31088C04626
:103A20007B681B689A687B681B6801218A439A60DF
:103A30003B6C7B637B6B83F31088C0467B681B6E9B
:103A4000012B18D1EFF310837B617B69FB630123AA
:103A5000BB61BB6983F31088C0467B681B681A682A
:103A60007B681B6810218A431A60FB6BFB61FB6952
:103A700083F31088C0467B681B689B684022134014
:103A8000402B35D1EFF31083BB60BB68BB630123D0
:103A9000FB60FB6883F31088C0467B681B689A68EC
:103AA0007B681B6840218A439A60BB6B3B613B6922
:103AB00083F31088C0467B685B6F002B18D07B684F
:103AC0005B6F00229A637B685B6F1800FDF726FE30
:103AD000031E0DD07B685B6F1800FDF754FF0300D9
:103AE000202B05D17B68842210219950032317E0F5
:103AF0007B685A22002199527B681B680F221A6248
:103B00007B681B689A697B681B6808210A439A6175
:103B10007B688022202199507B6800221A6600234E
:103B20001800BD4612B080BDDFFEFFFF90B5ABB000
:103B300000AF78607B681B68DB69A422B9180B6052
:103B40007B681B681B68A02039180B607B681B68AA
:103B50009B689C2179180B601100BB181B68994A5F
:103B600013409822BC182360BB181B68002B14D18B
:103B70007B181B68202213400FD03B181B682022A3
:103B800013400AD07B689B6E002B00D1BEE27B689D
:103B90009B6E7A6810009847B8E29823FB181B6860
:103BA000002B00D114E19C23FB181B680122134059
:103BB00006D1A023FB181B68834A134000D107E1FC
:103BC000A423FB181B680122134012D0A023FB186A
:103BD0001A6880235B0013400BD07B681B680122AE
:103BE0001A627B6884229B5801221A437B688421D5
:103BF0005A50A423FB181B680222134011D09C23A7
:103C0000FB181B68012213400BD07B681B68022243
:103C10001A627B6884229B5804221A437B688421A1
:103C20005A50A423FB181B680422134011D09C2374
:103C3000FB181B68012213400BD07B681B68042211
:103C40001A627B6884229B5802221A437B68842173
:103C50005A50A423FB181B680822134017D0A02336
:103C6000FB181B682022134005D19C23FB181B68FE
:103C7000012213400BD07B681B6808221A627B6804
:103C800084229B5808221A437B6884215A50A4231B
:103C9000FB181A6880231B01134013D0A023FB18C4
:103CA0001A688023DB0413400CD07B681B688022D9
:103CB00012011A627B6884229B5820221A437B6877
:103CC00084215A507B6884229B58002B00D11FE22C
:103CD000A423FB181B68202213400ED0A023FB183E
:103CE0001B682022134008D07B689B6E002B04D0F9
:103CF0007B689B6E7A68100098477B6884229B588B
:103D000094217A1813607B681B689B6840221340DB
:103D1000402B04D07B181B682822134047D07B68B7
:103D2000180000F06FFF7B681B689B6840221340FF
:103D3000402B37D1EFF310833B663B6E90203A184F
:103D4000136001237B667B6E83F31088C0467B681B
:103D50001B689A687B681B6840218A439A603B18FD
:103D60001B68BB66BB6E83F31088C0467B685B6FC5
:103D7000002B12D07B685B6F144A9A637B685B6F81
:103D80001800FDF70BFD031E1AD07B685B6F9A6B62
:103D90007B685B6F1800904712E07B681800FCF7A7
:103DA000BDFE0DE07B681800FCF7B8FE08E07B68FC
:103DB0001800FCF7B3FE7B68842200219950A7E12C
:103DC000C046A5E10F08000020010004EF4F0008E5
:103DD0007B681B6E012B00D059E1A423FB181B68E4
:103DE0001022134000D152E1A023FB181B681022BF
:103DF000134000D14BE17B681B6810221A627B687C
:103E00001B689B6840221340402B00D0BFE07B68BA
:103E10005B6F1B685A687E217B181A807B181B8891
:103E2000002B00D195E07B6858229B5A7A181288A3
:103E30009A4200D38DE07B687A185A2112885A5230
:103E40007B685B6F1B681B68202213406FD1EFF308
:103E500010833B633B6BBB6701237B637B6B83F30B
:103E60001088C0467B681B681A687B681B68AD4970
:103E70000A401A60BB6FBB63BB6B83F31088C046FC
:103E8000EFF31083FB63FB6B7B6701233B643B6CAD
:103E900083F31088C0467B681B689A687B681B6840
:103EA00001218A439A607B6F7B647B6C83F310886B
:103EB000C046EFF31083BB64BB6C3B670123FB641C
:103EC000FB6C83F31088C0467B681B689A687B682C
:103ED0001B6840218A439A603B6F3B653B6D83F3CF
:103EE0001088C0467B688022202199507B68002280
:103EF0001A66EFF310837B657B6DFB660123BB6560
:103F0000BB6D83F31088C0467B681B681A687B68AA
:103F10001B6810218A431A60FB6EFB65FB6D83F3FF
:103F20001088C0467B685B6F1800FDF7F7FB7B6865
:103F300002225A667B6858229A5A7B685A215B5A39
:103F40009BB2D31A9AB27B6811001800FCF7CAFD25
:103F5000E0E07B6858229B5A7E22BA1812889A4267
:103F600000D0D7E07B685B6F1B681B682022134082
:103F7000202B00D0CEE07B6802225A667B68582254
:103F80009A5A7B6811001800FCF7ACFDC2E07B6810
:103F90005822995A7B685A229B5A9AB28E203B1813
:103FA0008A1A1A807B685A229B5A9BB2002B00D136
:103FB000B2E03B181B88002B00D1ADE0EFF310837B
:103FC000FB60FB6888243A19136001233B613B695D
:103FD00083F31088C0467B681B681A687B681B687F
:103FE00051490A401A603B191B687B617B6983F366
:103FF0001088C046EFF31083BB61BB6984243A1973
:1040000013600123FB61FB6983F31088C0467B6862
:104010001B689A687B681B6801218A439A603B1978
:104020001B683B623B6A83F31088C0467B68802232
:10403000202199507B6800221A667B6800229A66CC
:10404000EFF310837B627B6A80243A1913600123AB
:10405000BB62BB6A83F31088C0467B681B681A6822
:104060007B681B6810218A431A603B191B68FB623E
:10407000FB6A83F31088C0467B6802225A663B18AD
:104080001A887B6811001800FCF72CFD44E0A4237B
:10409000FB181A6880235B03134010D09C23FB1885
:1040A0001A688023DB03134009D07B681B688022D9
:1040B00052031A627B68180000F0D7FF2FE0A42398
:1040C000FB181B68802213400FD0A023FB181B682D
:1040D0008022134009D07B68DB6E002B1ED07B68EA
:1040E000DB6E7A681000984718E0A423FB181B6861
:1040F0004022134013D0A023FB181B68402213401A
:104100000DD07B68180000F085FF08E0C04606E08F
:10411000C04604E0C04602E0C04600E0C046BD46DE
:104120002BB090BDFFFEFFFFDFFEFFFF80B582B02A
:1041300000AF7860C046BD4602B080BD80B582B099
:1041400000AF7860C046BD4602B080BD80B582B089
:1041500000AF7860C046BD4602B080BD80B582B079
:1041600000AF7860C046BD4602B080BD80B584B067
:1041700000AF78607B68DB6FFB607B6880229B58B8
:10418000BB60FA68BB6813431800BD4604B080BD2D
:1041900080B582B000AF78607B6884229B5818009D
:1041A000BD4602B080BD0000B0B58EB000AFF86172
:1041B0001A2318229B18DB1900221A70FB699A68CF
:1041C000FB691B691A43FB695B691A43FB69DB697D
:1041D00013437B63FB691B681B68C34A13401900C8
:1041E000FB691B687A6B0A431A60FB691B685B6892
:1041F000BE4A13401900FB69DA68FB691B680A4371
:104200005A60FB699B697B63FB691B68B84A9342F0
:1042100004D0FB691B6A7A6B13437B63FB691B68E1
:104220009B68B44A13401900FB691B687A6B0A4308
:104230009A60FB691B68B04A934231D1AF4BDB6C8B
:1042400003221340032B1DD023D8022B0CD020D8DF
:10425000002B02D0012B0ED01BE01B2318229B1831
:10426000DB1901221A70B4E01B2318229B18DB19FA
:1042700002221A70ADE01B2318229B18DB190422BE
:104280001A70A6E01B2318229B18DB1908221A704B
:104290009FE01B2318229B18DB1910221A7098E04C
:1042A000FB691B68964A934231D1944BDB6C0C221C
:1042B00013400C2B1DD023D8082B0CD020D8002B5A
:1042C00002D0042B0ED01BE01B2318229B18DB19F5
:1042D00000221A707DE01B2318229B18DB19022292
:1042E0001A7076E01B2318229B18DB1904221A701F
:1042F0006FE01B2318229B18DB1908221A7068E054
:104300001B2318229B18DB1910221A7061E0FB692D
:104310001B687C4A934206D11B2318229B18DB1989
:1043200000221A7055E0FB691B68774A934206D158
:104330001B2318229B18DB1900221A7049E0FB6925
:104340001B686B4A93423ED16C4BDA6CC0231B0155
:104350001340C0221201934227D0C022120193427F
:104360002AD880221201934211D080221201934256
:1043700022D8002B04D08022D20093420ED01BE022
:104380001B2318229B18DB1900221A7021E01B2323
:1043900018229B18DB1902221A701AE01B2318221C
:1043A0009B18DB1904221A7013E01B2318229B1898
:1043B000DB1908221A700CE01B2318229B18DB194A
:1043C00010221A7005E01B2318229B18DB191022FB
:1043D0001A70FB691B68464A934200D09AE01B237F
:1043E00018229B18DB191B78082B1DD020DC042B0E
:1043F00015D01DDC002B02D0022B05D018E0FEF7F3
:10440000EFFC0300FB621CE03C4B1B6810221340D6
:1044100002D03E4BFB6214E03D4BFB6211E0FEF725
:104420004FFC0300FB620CE080231B02FB6208E0F0
:104430000023FB621A2318229B18DB1901221A7031
:10444000C046FB6A002B00D133E1FB695A681300B8
:104450005B009B18FA6A9A4205D3FB695B681B03F1
:10446000FA6A9A4206D91A2318229B18DB190122EC
:104470001A701EE1FB6A3B6100237B6139697A692E
:104480000B001B0E100005021D430B001C02FB69F4
:104490005B685B08BB600023FB60B868F9680019C3
:1044A0006941FB695B683B6000237B603A687B681D
:1044B000FBF7BEFE02000B001300BB62BA6AC0230A
:1044C0009B009A4209D3BA6A80235B039A4204D2C2
:1044D000FB691B68BA6ADA60EBE01A2318229B18A2
:1044E000DB1901221A70E4E0F369FFEFFFCFFFFF51
:1044F00000480040FFF4FFFF003801400010024078
:1045000000440040004C00400050004000093D00C5
:104510000024F400FB69DA6980231B029A4200D070
:1045200070E01B2318229B18DB191B78082B22D85C
:104530009A00674BD3181B689F46FEF751FC030097
:10454000FB6221E0FEF762FC0300FB621CE0614BB2
:104550001B681022134002D05F4BFB6214E05F4BDC
:10456000FB6211E0FEF7ACFB0300FB620CE0802372
:104570001B02FB6208E00023FB621A2318229B182F
:10458000DB1901221A70C046FB6A002B00D190E0B3
:10459000FB6A5A00FB695B685B08D218FB695B68C1
:1045A00019001000FBF7B8FD0300BB62BB6A0F2BBC
:1045B00021D9BA6A80235B029A421CD2BB6A9AB2A2
:1045C0000E2018240319DB190F218A431A80BB6AB5
:1045D0005B089BB20722134099B20319DB19021939
:1045E000D21912880A431A80FB691B680219D21972
:1045F0001288DA605DE01A2318229B18DB19012269
:104600001A7056E01B2318229B18DB191B78082B05
:1046100022D89A00324BD3181B689F46FEF7E0FB66
:104620000300FB6221E0FEF7F1FB0300FB621CE0EC
:10463000284B1B681022134002D0274BFB6214E06A
:10464000264BFB6211E0FEF73BFB0300FB620CE034
:1046500080231B02FB6208E00023FB621A2318225E
:104660009B18DB1901221A70C046FB6A002B20D070
:10467000FB695B685A08FB6AD218FB695B68190022
:104680001000FBF749FD0300BB62BB6A0F2B0AD980
:10469000BA6A80235B029A4205D2BB6A9AB2FB696E
:1046A0001B68DA6005E01A2318229B18DB19012227
:1046B0001A70FB6900229A66FB690022DA661A23E7
:1046C00018229B18DB191B781800BD460EB0B0BD30
:1046D000C85C00080010024000093D000024F400FE
:1046E000EC5C000880B582B000AF78607B685B6AE4
:1046F000082213400BD07B681B685B684A4A134052
:1047000019007B685A6B7B681B680A435A607B6898
:104710005B6A012213400BD07B681B685B68434ACD
:10472000134019007B689A6A7B681B680A435A60C9
:104730007B685B6A022213400BD07B681B685B6856
:104740003B4A134019007B68DA6A7B681B680A439E
:104750005A607B685B6A042213400BD07B681B683D
:104760005B68344A134019007B681A6B7B681B68CE
:104770000A435A607B685B6A102213400BD07B6847
:104780001B689B682C4A134019007B689A6B7B68F6
:104790001B680A439A607B685B6A202213400BD037
:1047A0007B681B689B68254A134019007B68DA6B9D
:1047B0007B681B680A439A607B685B6A40221340EF
:1047C0001DD07B681B685B681D4A134019007B681D
:1047D0001A6C7B681B680A435A607B681A6C8023DA
:1047E0005B039A420BD17B681B685B68154A1340D8
:1047F00019007B685A6C7B681B680A435A607B68A7
:104800005B6A802213400BD07B681B685B680E4A92
:10481000134019007B689A6C7B681B680A435A60D6
:10482000C046BD4602B080BDFF7FFFFFFFFFFDFF1A
:10483000FFFFFEFFFFFFFBFFFFEFFFFFFFDFFFFFBD
:10484000FFFFEFFFFFFF9FFFFFFFF7FF80B592B075
:1048500002AF78607B68842200219950FCF7E4FC69
:104860000300FB637B681B681B6808221340082B4E
:104870002CD1FB6B802291037868464A009200227B
:1048800000F08CF8031E21D0EFF310837B627B6A6B
:10489000BB630123BB62BB6A83F31088C0467B689D
:1048A0001B681A687B681B6880218A431A60BB6B8F
:1048B000FB62FB6A83F31088C0467B682022DA67BC
:1048C0007B6878220021995403235FE07B681B6892
:1048D0001B6804221340042B46D1FB6B8022D103BA
:1048E00078682C4A0092002200F058F8031E3BD052
:1048F000EFF31083FB60FB687B6301233B613B6943
:1049000083F31088C0467B681B681A687B681B6845
:1049100021490A401A607B6B7B617B6983F31088B5
:10492000C046EFF31083BB61BB693B630123FB61AE
:10493000FB6983F31088C0467B681B689A687B68B4
:104940001B6801218A439A603B6B3B623B6A83F39D
:104950001088C0467B688022202199507B6878228D
:1049600000219954032311E07B682022DA677B68D9
:104970008022202199507B6800221A667B680022E1
:104980005A667B6878220021995400231800BD469E
:1049900010B080BDFFFFFF01DFFEFFFF80B584B0D8
:1049A00000AFF860B9603B60FB1D1A7051E0BB6955
:1049B00001334ED0FCF738FC02003B68D31ABA69C9
:1049C0009A4202D3BB69002B01D1032351E0FB685B
:1049D0001B681B68042213403BD0BB68802B38D077
:1049E000BB68402B35D0FB681B68DB69082213408D
:1049F000082B11D1FB681B6808221A62FB6818009B
:104A000000F000F9FB68842208219950FB687822A5
:104A10000021995401232CE0FB681B68DA6980238C
:104A20001B011A4080231B019A4212D1FB681B68AC
:104A3000802212011A62FB68180000F0E3F8FB689C
:104A4000842220219950FB68782200219954032365
:104A50000FE0FB681B68DB69BA681340BA68D31AB9
:104A60005A425341DBB21A00FB1D1B789A429ED07A
:104A700000231800BD4604B080BD000080B590B092
:104A800000AFF860B960BB1D1A80FB68BA685A6550
:104A9000FB68BA1D582112885A52FB6884220021F3
:104AA0009950FB68802222219950FB685B6F002B94
:104AB00028D0FB685B6F3E4ADA62FB685B6F3D4A59
:104AC0001A63FB685B6F3C4A5A63FB685B6F0022AA
:104AD0009A63FB68586FFB681B6824331900FB68F6
:104AE0005B6D1A00BB1D1B88FCF7B2FD031E09D0CD
:104AF000FB68842210219950FB6880222021995064
:104B0000012350E0FB681B69002B19D0EFF31083E1
:104B1000BB62BB6AFB630123FB62FB6A83F3108801
:104B2000C046FB681B681A68FB681B688021490047
:104B30000A431A60FB6B3B633B6B83F31088C046F0
:104B4000EFF310833B613B69BB6301237B617B69AE
:104B500083F31088C046FB681B689A68FB681B6873
:104B600001210A439A60BB6BBB61BB6983F3108868
:104B7000C046EFF31083FB61FB697B6301233B625B
:104B80003B6A83F31088C046FB681B689A68FB6821
:104B90001B6840210A439A607B6B7B627B6A83F3CC
:104BA0001088C04600231800BD4610B080BDC04626
:104BB000854D0008ED4E00086B4F000880B586B0AB
:104BC00000AF7860EFF31083BB60BB687B610123AB
:104BD000FB60FB6883F31088C0467B681B681A681B
:104BE0007B681B68C0218A431A607B693B613B6913
:104BF00083F31088C0467B682022DA67C046BD4632
:104C000006B080BD80B58EB000AF7860EFF3108342
:104C10007B617B697B630123BB61BB6983F3108884
:104C2000C0467B681B681A687B681B6826490A4077
:104C30001A607B6BFB61FB6983F31088C046EFF35E
:104C400010833B623B6A3B6301237B627B6A83F395
:104C50001088C0467B681B689A687B681B680121C6
:104C60008A439A603B6BBB62BB6A83F31088C04681
:104C70007B681B6E012B18D1EFF31083BB60BB6800
:104C8000FB620123FB60FB6883F31088C0467B68EE
:104C90001B681A687B681B6810218A431A60FB6ACC
:104CA0003B613B6983F31088C0467B6880222021EA
:104CB00099507B6800221A667B6800229A66C0467B
:104CC000BD460EB080BDC046DFFEFFFF80B58CB094
:104CD00000AF78607B689B6AFB627B681B681B681F
:104CE0002022134035D1FB6A522200219952EFF362
:104CF0001083FB60FB68BB6201233B613B6983F36C
:104D00001088C046FB6A1B689A68FB6A1B68802192
:104D10008A439A60BB6A7B617B6983F31088C046D3
:104D2000EFF31083BB61BB697B620123FB61FB690D
:104D300083F31088C046FB6A1B681A68FB6A1B680D
:104D400040210A431A607B6A3B623B6A83F3108806
:104D500004E0FB6A1800FFF7E9F9C046C046BD460B
:104D60000CB080BD80B584B000AF78607B689B6A72
:104D7000FB60FB681800FFF7E1F9C046BD4604B0D0
:104D800080BD000080B594B000AF78607B689B6AFE
:104D9000FB647B681B681B68202213406FD1FB6C8F
:104DA0005A2200219952EFF310837B617B69BB6427
:104DB0000123BB61BB6983F31088C046FB6C1B6891
:104DC0001A68FB6C1B6848490A401A60BB6CFB619F
:104DD000FB6983F31088C046EFF310833B623B6AA4
:104DE0007B6401237B627B6A83F31088C046FB6C83
:104DF0001B689A68FB6C1B6801218A439A607B6C74
:104E0000BB62BB6A83F31088C046EFF31083FB627A
:104E1000FB6A3B6401233B633B6B83F31088C04612
:104E2000FB6C1B689A68FB6C1B6840218A439A6084
:104E30003B6C7B637B6B83F31088C046FB6C8022EA
:104E400020219950FB6C1B6E012B18D1EFF31083BE
:104E5000BB60BB68FB630123FB60FB6883F31088C6
:104E6000C046FB6C1B681A68FB6C1B6810218A43E8
:104E70001A60FB6B3B613B6983F31088C046FB6C97
:104E800000225A66FB6C1B6E012B24D1FB6C5A224C
:104E9000002199527B681B685A683A217B181A8056
:104EA000FB6C58229B5A7A1812889A4204D2FB6CE7
:104EB0007A185A2112885A52FB6C58229A5AFB6C63
:104EC0005A215B5A9BB2D31A9AB2FB6C110018009C
:104ED000FBF708FE03E0FB6C1800FFF737F9C0464C
:104EE000BD4614B080BDC046FFFEFFFF80B584B054
:104EF00000AF78607B689B6AFB60FB6801225A66A2
:104F0000FB681B6E012B28D1FB6858229B5A5B085B
:104F100099B2FB685A2299527B681B685A680A2129
:104F20007B181A80FB6858229B5A7A1812889A427A
:104F300004D8FB687A185A2112885A52FB68582202
:104F40009A5AFB685A215B5A9BB2D31A9AB2FB68F1
:104F500011001800FBF7C6FD03E0FB681800FFF71F
:104F6000FDF8C046BD4604B080BD80B586B000AF38
:104F700078607B689B6A7B617B69DB6F3B617B69E7
:104F800080229B58FB607B691B689B6880221340D2
:104F9000802B0AD13B69212B07D17B69522200214A
:104FA00099527B691800FFF709FE7B691B689B68B3
:104FB00040221340402B0AD1FB68222B07D17B698A
:104FC0005A22002199527B691800FFF71BFE7B696A
:104FD00084229B5810221A437B6984215A507B6992
:104FE0001800FBF79BFDC046BD4606B080BD80B5EE
:104FF00084B000AF78607B689B6AFB60FB685A22D4
:1050000000219952FB681800FBF788FDC046BD4699
:1050100004B080BD80B586B000AF7860EFF3108338
:10502000BB60BB687B610123FB60FB6883F3108876
:10503000C0467B681B681A687B681B6840218A43EE
:105040001A607B693B613B6983F31088C0467B68CB
:105050002022DA677B680022DA667B681800FFF797
:1050600065F8C046BD4606B080BD80B582B000AFD1
:105070007860C046BD4602B080BDB0B58AB000AF12
:10508000F860B960BB1D1A80FB6880229B58202BFA
:1050900056D1BB68002B03D0BB1D1B88002B01D150
:1050A00001234EE0FB689A6880235B019A4209D194
:1050B000FB681B69002B05D1BB680122134001D09E
:1050C00001233EE0FB6801221A66FB6800225A6653
:1050D00027257C19BB1D1A88B968FB681800FFF7E3
:1050E000CDFC030023707B191B78002B24D1FB68B7
:1050F0001B6E012B1CD1FB681B6810221A62EFF398
:1051000010837B617B693B620123BB61BB6983F3D5
:105110001088C046FB681B681A68FB681B68102172
:105120000A431A603B6AFB61FB6983F3108803E062
:105130002723FB1801221A702723FB181B7800E095
:1051400002231800BD460AB0B0BD80B584B000AFE0
:1051500078600023FB607B68180000F0BDFB030053
:10516000FB60FB681800BD4604B080BD80B582B00E
:1051700000AF78607B68002B0BD07B681B68002B2E
:1051800007D07B681B68180000F0B0FB7B6800222A
:105190001A60C046BD4602B080BD80B582B000AF87
:1051A00078607B6800221A837B68586A7B689B8AD8
:1051B0001A00002100F056FCC046BD4602B080BD7A
:1051C00090B587B000AFF860B960BB1D1A80172496
:1051D0003B1900221A70FB68BA1D12885A83FB68BB
:1051E0001868BB1D1A88BB681900FEF7FBFA031E7E
:1051F00003D13B1901221A7000E0C0461723FB18A7
:105200001B781800BD4607B090BD80B582B000AFD6
:1052100078607B681B681800FEF7A8FF0300212B4D
:1052200007D07B681B681800FEF7A0FF0300232B44
:1052300001D1012300E000231800BD4602B080BD6B
:1052400080B584B000AF786039600F23FB1800226E
:105250001A70FBF7E9FF0300BB60012000F02FFB91
:105260007B681B681800FEF781FF0300222B07D024
:105270007B681B681800FEF779FF0300202B04D120
:105280000F23FB1801221A701CE07B681B681800B2
:10529000FEF76CFF0300E02B14D07B681B6818003E
:1052A000FEF764FF0300A02B0CD0FBF7BDFF02004C
:1052B000BB68D31A3A689A42CFD87B681B6818003B
:1052C000FEF720FB0F23FB181B781800BD4604B027
:1052D00080BD80B584B000AF786039600F23FB18C3
:1052E00000221A707B681B8B002B31D00C23FB181B
:1052F00000221A8025E07B68586A0C23FB181A8864
:105300007B680A329200D358190000F0C7FB0300F3
:10531000BB60BB68002B0ED03B68002B02D03B6803
:10532000BA681A600C23FB181B88DAB20F23FB182B
:1053300001321A700CE00C217B181A887B1801329C
:105340001A807B68DB8A0C22BA1812889A42D2D360
:105350000F23FB181B781800BD4604B080BD80B534
:1053600082B000AF78607B681B681800FEF710FF02
:10537000031E1FD07B681B681B68012252421A6201
:105380007B681B681800FEF723FB7B6818687B6846
:10539000D9697B689B8A1A00FFF76FFE7B681B68E0
:1053A0005B6F1B681A687B681B685B6F1B68042156
:1053B0008A431A607B681B681800FEF7D7FE03005B
:1053C000222B27D07B681B681800FEF7CFFE030056
:1053D000232B1FD07B681B681B68012252421A6274
:1053E0007B681B681800FEF7F3FA7B6818687B6817
:1053F000D9697B689B8A1A00FFF73FFE7B681B68B0
:105400005B6F1B681A687B681B685B6F1B680421F5
:105410008A431A60C046BD4602B080BD80B586B0E2
:1054200000AFF860B9603B60BB1D1A801723FB1802
:1054300000221A70FB68002B00D17FE0BB68002BB4
:1054400000D17BE0FB683C220021180000F00AFB41
:105450003B68002B06D0FB6804333968072218002C
:1054600000F008FBFB68BA681A60BB1D1B881800B7
:10547000FFF76BFE0200FB68DA61FB68DB69002B5B
:1054800055D0FB68D869BB1D1B881A00002100F0AD
:10549000E9FABB1D1B881800FFF757FE0200FB68E6
:1054A0001A62FB681B6A002B43D0FB68186ABB1D9D
:1054B0001B881A00002100F0D5FABB1D1B881800BC
:1054C000FFF743FE0200FB685A62FB685B6A002B31
:1054D00031D0FB68586ABB1D1B881A00002100F000
:1054E000C1FAFB68BA1D12889A82FB681B681B68A8
:1054F000012252421A62FB681868FB68D969FB688E
:105500009B8A1A00FFF7B9FD031E16D1FB681B68C2
:105510005B6F1B681A68FB681B685B6F1B68042164
:105520008A431A601723FB1801221A7006E0C0464E
:1055300004E0C04602E0C04600E0C0461723FB1866
:105540001B7801225340DBB2002B17D0FB68DB69CC
:10555000002B04D0FB681C331800FFF707FEFB6824
:105560005B6A002B04D0FB6824331800FFF7FEFDB4
:10557000FB683C220021180000F074FA1723FB1886
:105580001B781800BD4606B080BD80B584B000AF62
:10559000786039600F23FB1800221A700023BB606B
:1055A0007B68002B1FD03B68002B1ED002E0BB683D
:1055B0000133BB60BB68DB003A68D3181B68002B63
:1055C00006D0BB68DB003A68D3185B68002BEED1CD
:1055D0007B683A68DA607B68BA681A610F23FB1847
:1055E00001221A7002E0C04600E0C0460F23FB18FB
:1055F0001B781800BD4604B080BDB0B58CB000AFBC
:10560000F860B9607A603B600023FB62FB681800B9
:10561000FFF7FBFD031E02D004235B42E3E04423BB
:10562000FB181B78052B02D905235B42DBE0FB68E6
:105630001800FFF794FE4823FB187B610023BB6230
:1056400051E07B691A1D7A611B68BB61BB69180058
:10565000FAF75AFD030001331800FFF776FD010049
:10566000FB68BA6A0A329200D150FB68BA6A0A3201
:105670009200D358002B1CD12723FB1800221A704C
:105680000EE027243B191B780A339B00FA68D318D5
:105690001800FFF76BFD3B191A783B1901321A709D
:1056A0002723FB181B78BA6A9A42EADC03235B4281
:1056B00099E0FB68BA6A0A329200D358BA691100BD
:1056C000180000F03FFAFB68BA6A0A329200D45818
:1056D000BB691800FAF718FD0300E31800221A70DE
:1056E000BB6A0133BB624423FB181B78BA6A9A4237
:1056F000A7DBFB681800FFF750FDBB681800FAF73E
:1057000003FD03009AB2B968FB681800FFF758FD63
:1057100003001A0001235340DBB2002B03D0012306
:105720005B42FB6210E07A68FB6811001800FFF72B
:1057300087FD03001A0001235340DBB2002B03D086
:1057400002235B42FB62C04644243B191B78002BBA
:1057500029D0FB6A002B26D1FBF766FD03003B62D4
:105760003B191B789AB2FB68DA8214E0012000F042
:10577000A6F81F257C193A68FB6811001800FFF78E
:10578000A8FD030023707B191B78002B03D07B1925
:105790001B78FB6207E0FBF747FD02003B6AD31A68
:1057A0003A6C9A42E2D8FB680022DA822623FB1880
:1057B00000221A700EE026243B191B780A339B0046
:1057C000FA68D3181800FFF7D1FC3B191A783B1977
:1057D00001321A702623FA184423FB1812781B781A
:1057E0009A42E8D3FB6A1800BD460CB0B0BD80B544
:1057F00082B000AF78600A00BB1C1A80BB1C1A88FC
:105800007B689B8A19007B681B8BCB1A9A4206DD4A
:105810007B68998A7B681A8BBB1C8A1A1A807B6802
:105820005B6A7A68128B98187B68D969BB1C1B88E5
:105830001A0000F08FF97B681A8BBB1C1B88D318E9
:105840009AB27B681A837B6818687B68D9697B6821
:105850009B8A1A00FFF711FC031E0CD17B681B68A2
:105860005B6F1B681A687B681B685B6F1B68042191
:105870008A431A601FE07B681B681B680122524242
:105880001A627B681B681800FEF7A2F87B6818682C
:105890007B68D9697B689B8A1A00FFF7EEFB7B68FF
:1058A0001B685B6F1B681A687B681B685B6F1B68F3
:1058B00004218A431A60C046BD4602B080BD80B54F
:1058C00082B000AF78607B681800FBF7B7FCC04679
:1058D000BD4602B080BD000010B5034B0100186842
:1058E00000F030F810BDC0461000002010B5034B8A
:1058F0000100186800F038F910BDC0461000002003
:1059000070B50F4E0D0031680400002902D100F07F
:10591000DBF830602900200000F0D6F8431C03D1EA
:1059200001256D42280070BD0323C51C9D43A8427C
:10593000F8D0291A200000F0C7F80130F2D1EFE7C3
:10594000A8030020F7B50322CB1C934308330500BE
:105950001F000C2B34D20C27B94233D8280000F09A
:1059600071F8374E33681C00002C2FD13900280005
:10597000FFF7C6FF0400431C5FD134680094009B0E
:10598000002B4AD1002C52D023682800E31800993C
:10599000019300F099F8019B834248D123682800C5
:1059A000FF1A3900FFF7ACFF013040D02368DB1944
:1059B000236033685A68002A33D1009B336019E0B2
:1059C000002BC9DA0C232B600020FEBD2168C91B07
:1059D00020D40B290AD9E2192760A34204D13260EE
:1059E00063681160536005E05A60F9E76268A3429A
:1059F0000ED13260280000F02DF8200007220B3075
:105A0000231D9043C21A9842DFD01B1AA350DCE733
:105A10005A60EFE723006468A6E7009C6368009380
:105A2000ADE71A005B68A342FBD10023DAE70C2341
:105A300028002B6000F00EF8C6E70760DAE7C046E2
:105A4000AC03002010B5024800F07AF810BDC04643
:105A5000EC04002010B5024800F073F810BDC046F9
:105A6000EC04002003008218934200D170471970A3
:105A70000133F9E7030030B51D00002A06D00C7889
:105A8000013A01332C700131002CF5D100219A1814
:105A9000934200D130BD19700133F9E70A7830B56F
:105AA000002A0CD130BD9A4208D10123CC5C002CD5
:105AB000F8D0C55CA54201D10133F7E70130037886
:105AC000002BF0D11800EDE7002370B5064D04005F
:105AD00008002B60FBF7FCF8431C03D12B68002B5C
