:020000040800F2
:1000000000500020AD180008251000082D10000831
:1000100000000000000000000000000000000000E0
:100020000000000000000000000000003510000883
:1000300000000000000000003F1000084910000808
:10004000FD180008FD18000859100008FD180008E8
:10005000FD180008FD180008FD180008FD1800082C
:10006000FD180008FD180008711000089510000820
:10007000FD180008FD180008FD180008FD1800080C
:10008000FD180008FD180008FD1800080000000019
:10009000FD180008FD180008FD180008FD180008EC
:1000A000FD180008FD180008FD180008FD180008DC
:1000B000FD180008B9100008FD180008FD18000818
:1000C00010B5064C2378002B07D1054B002B02D02E
:1000D000044800E000BF0123237010BD6000002031
:1000E00000000000886C0008044B10B5002B03D002
:1000F0000349044800E000BF10BDC04600000000F6
:1001000064000020886C00080023C25C0133002AD0
:10011000FBD1581E7047000003B4714649084000E7
:100120004900095E49008E4403BC70470022430821
:100130008B4274D303098B425FD3030A8B4244D3AF
:10014000030B8B4228D3030C8B420DD3FF220902F1
:1001500012BA030C8B4202D31212090265D0030BB0
:100160008B4219D300E0090AC30B8B4201D3CB03A6
:10017000C01A5241830B8B4201D38B03C01A5241E8
:10018000430B8B4201D34B03C01A5241030B8B42EA
:1001900001D30B03C01A5241C30A8B4201D3CB02D5
:1001A000C01A5241830A8B4201D38B02C01A5241BA
:1001B000430A8B4201D34B02C01A5241030A8B42BD
:1001C00001D30B02C01A5241CDD2C3098B4201D3D5
:1001D000CB01C01A524183098B4201D38B01C01A53
:1001E000524143098B4201D34B01C01A52410309CA
:1001F0008B4201D30B01C01A5241C3088B4201D379
:10020000CB00C01A524183088B4201D38B00C01A25
:10021000524143088B4201D34B00C01A5241411A4C
:1002200000D20146524110467047FFE701B5002059
:1002300000F0F0F802BDC0460029F7D076E770471D
:1002400003460B437FD4002243088B4274D3030937
:100250008B425FD3030A8B4244D3030B8B4228D3D8
:10026000030C8B420DD3FF22090212BA030C8B42FE
:1002700002D31212090265D0030B8B4219D300E09E
:10028000090AC30B8B4201D3CB03C01A5241830B23
:100290008B4201D38B03C01A5241430B8B4201D3D3
:1002A0004B03C01A5241030B8B4201D30B03C01AFC
:1002B0005241C30A8B4201D3CB02C01A5241830A76
:1002C0008B4201D38B02C01A5241430A8B4201D3A5
:1002D0004B02C01A5241030A8B4201D30B02C01ACF
:1002E0005241CDD2C3098B4201D3CB01C01A524136
:1002F00083098B4201D38B01C01A524143098B42BF
:1003000001D34B01C01A524103098B4201D30B01A7
:10031000C01A5241C3088B4201D3CB00C01A5241CC
:1003200083088B4201D38B00C01A524143088B4291
:1003300001D34B00C01A5241411A00D2014652412A
:10034000104670475DE0CA0F00D04942031000D349
:100350004042534000229C4603098B422DD3030A9E
:100360008B4212D3FC22890112BA030A8B420CD3AE
:10037000890192118B4208D3890192118B4204D3D7
:1003800089013AD0921100E08909C3098B4201D357
:10039000CB01C01A524183098B4201D38B01C01A91
:1003A000524143098B4201D34B01C01A5241030908
:1003B0008B4201D30B01C01A5241C3088B4201D3B7
:1003C000CB00C01A524183088B4201D38B00C01A64
:1003D0005241D9D243088B4201D34B00C01A52413B
:1003E000411A00D20146634652415B10104601D3C8
:1003F0004042002B00D54942704763465B1000D352
:10040000404201B5002000F005F802BD0029F8D0F7
:1004100016E770477047C046002B11D1002A0FD154
:10042000002900D1002802D00021C943080007B4E8
:10043000024802A14018029003BDC046D9FFFFFF49
:1004400003B4684601B5029800F006F8019B9E4689
:1004500002B00CBC7047C046F0B557464E46454604
:10046000DE46E0B504000D009246994683B08B420B
:1004700030D82DD04946504600F0BAF82900060081
:10048000200000F0B5F8331A9846203B34D49B4640
:1004900053465A46934042461F00534693401E001F
:1004A000AF423BD8AF4200D179E05B46A41BBD41CF
:1004B000002B00DA76E00022002300920193012352
:1004C0005A4693400193012342469340009329E00A
:1004D0008242CFD900220023009201930C9B002B73
:1004E00001D01C605D600098019903B0F0BCBB4670
:1004F000B246A946A046F0BD42469B4620239B1A21
:100500005246DA40414613004A468A4017004246A6
:100510001F43534693401E00AF42C3D9002200231D
:10052000009201934346002BD8D0FB0772081A4370
:1005300046467B080EE0AB4201D1A2420CD8A41A79
:100540009D41012024196D410021013E24184D4197
:10055000002E06D0AB42EED9013E24196D41002E8B
:10056000F8D1009801995B4600196941002B24DB02
:100570002B005A464446D3402A00E2401C005B460A
:100580001500002B2ADB26009E403300260047463C
:10059000BE403200801A9941009001919EE7A3422B
:1005A000BCD882E74246202300219B1A00220091FA
:1005B00001920122DA40019285E7424620239B1AEC
:1005C0002A0046469A402300F340444613432A003B
:1005D000E2401C005B461500002BD4DA42462F0097
:1005E0002023260097409B1ADE403B003343CDE793
:1005F00010B5002903D100F007F8203002E0080010
:1006000000F002F810BDC0461C2101231B049842D3
:1006100001D3000C10391B0A984201D3000A083993
:100620001B09984201D30009043902A2105C40184A
:100630007047C046040302020101010100000000EE
:100640000000000080B582B000AF104B1A6B0F4B5A
:1006500001210A431A630D4B1B6B012213407B607F
:100660007B68002200210A2001F0D6FA0A2001F05E
:10067000E8FA002200210B2001F0CEFA0B2001F055
:10068000E0FAC046BD4602B080BDC0460010024040
:1006900090B589B000AF0C243B19180014231A0040
:1006A000002105F0FDFE284BDA6A274B04210A439E
:1006B000DA62254BDB6A04221340BB60BB68224B25
:1006C000DA6A214B01210A43DA621F4BDB6A0122FD
:1006D00013407B607B681C4BDA6A1B4B02210A4388
:1006E000DA62194BDB6A022213403B603B68174B0E
:1006F00000222021180001F0DBFF3B1920221A60A4
:100700003B1900225A603B1900229A603A19A02333
:10071000DB051100180001F06BFD21007B18202281
:100720001A607B1801225A607B1800229A607B189D
:100730000022DA607B18054A1900100001F058FD0C
:10074000C046BD4609B090BD0010024000040050F4
:1007500080B500AF1B4B1C4A1A601A4B1B4A5A60EB
:10076000184B00229A60174B0122DA60154B0022C9
:100770001A61144B00225A61124B00229A61114BEC
:100780000022DA610F4B00221A620E4B180001F0B2
:10079000ADFF031E01D000F0D6FB0A4B002118006C
:1007A00002F07AF8031E01D000F0CDFB054B0021CA
:1007B000180002F0BDF8031E01D000F0C4FBC046D3
:1007C000BD4680BD7C0000200054004002020000B5
:1007D00090B589B000AF78600C243B191800142341
:1007E0001A00002105F05CFE7B681B68174A9342E3
:1007F00028D1174BDA6A164B02210A43DA62144BEE
:10080000DB6A02221340BB60BB6821007B18C02258
:100810001A607B1812225A607B1801229A607B189A
:100820000322DA607B1801221A617B18094A190039
:10083000100001F0DDFC064B9A6B054B802189030B
:100840000A439A63C046BD4609B090BD00540040BB
:10085000001002400004005080B582B000AF786004
:100860007B681B680B4A93420FD10B4B9A6B0A4B68
:100870000A490A409A630A4B4021180001F036FEEB
:10088000074B8021180001F031FEC046BD4602B082
:1008900080BDC0460054004000100240FFFFDFFF53
:1008A0000004005080B582B000AF0200FB1D1A703A
:1008B000FB1D1B787F2B0AD8FB1D1B781A001F23FA
:1008C0001340054901229A40C0235B00CA50C0462C
:1008D000BD4602B080BDC04600E100E080B582B0F8
:1008E00000AF7860124A7B681100180005F0F4FD33
:1008F000031E19D00F4A7B681100180005F0ECFDAB
:10090000031E06D00C4B01221A700C4B01221A70E8
:100910000AE00B4A7B681100180005F0DDFD031E9C
:1009200002D0054B00221A70C046BD4602B080BD01
:10093000A06C0008A86C0008A402002000000020A1
:10094000B46C0008F0B5C64600B58EB006AF78604E
:100950000A00BB1C1A801C243B1900221A600826BE
:10096000BB19180014231A00002105F099FDB919CC
:10097000184B0022180003F095F83919154B002286
:10098000180003F0EDF8BB1C19882200BB18DB78B7
:100990009846BB185B781C00BB189B781D00320082
:1009A000BB181B781E00BB185B789C46BB189B7855
:1009B000094A78680493634603930296019500946C
:1009C000434605F037FDC046BD4608B080BCB8467A
:1009D000F0BDC046A8020020C46C0008B0B5CCB081
:1009E00002AF786008243B1920211800FFF7AAFF06
:1009F0003C190D4A80235900282578197B680093FB
:100A0000230005F017FD2C003B191800FFF77CFBB5
:100A100003009AB2FA239B003919044803F0A4FB9F
:100A2000C046BD464AB0B0BDE86C0008580300207F
:100A300080B500AF534B1800FFF7D0FFC046524BB4
:100A40001B68DB6940221340402BF8D1C0464F4B56
:100A50001B68DB6940221340402BF8D1C0464B4B4A
:100A60001B68DA6980235B021A4080235B029A428A
:100A7000F5D0C046454B1B68DA698023DB031A407A
:100A80008023DB039A42F5D1414B180000F07FFE32
:100A9000404B180001F0D0FE3B4B180003F026FB42
:100AA000052001F0DEF8062001F0DBF8072001F058
:100AB000D8F80A2001F0D5F80B2001F0D2F81B205D
:100AC00001F0CFF8344B180003F028FA031E01D0D0
:100AD00000F039FA304B04223B21180003F046F9AC
:100AE000031E01D000F02FFA2C4B1A6D2B4B8021E6
:100AF00009040A431A652A4B1A68294B04210A4340
:100B00001A601D20FFF7CEFE1B20FFF7CBFE022050
:100B1000FFF7C8FE0A20FFF7C5FE0B20FFF7C2FE55
:100B20001D4B1B68DB68FF221A401B4B1B681D49CD
:100B30000A43DA60154B1B680F221A62174B9A6B37
:100B4000164B19490A409A63144B5A6B134B1749B9
:100B50000A405A63114B1A6B104B01218A431A63E6
:100B600000F07EFF00F060FF0121012001F02CFF6A
:100B700000F068FF00F056F900F01AF8C046BD46D4
:100B800080BDC046F06C000858030020D002002051
:100B9000500100207C000020A8020020001002402C
:100BA000007000407FFBFFFFFFFFDFFFFFBFFFFF85
:100BB00080B584B000AF3C4BDA6A3B4B01210A435D
:100BC000DA62394BDB6A01221340FB60FB68364B6B
:100BD000DA6A354B02210A43DA62334BDB6A0222BE
:100BE0001340BB60BB68304BDA6A2F4B04210A43C9
:100BF000DA622D4BDB6A042213407B607B682A4B50
:100C00009A6B294B802189030A439A63264B9A6B7E
:100C1000254B8021C9020A439A63234B5A6B224B0E
:100C20008021C9010A435A631F4B1A6B1E4B0121D5
:100C30000A431A631C4B1B6B012213403B603B6849
:100C4000FFF726FDFFF7FEFCFFF782FD00F08CFAB0
:100C500000F0B8FA00F07CF9052000F0F2FF062061
:100C600000F0EFFF072000F0ECFF0A2000F0E9FFA2
:100C70000B2000F0E6FF1B2000F0E3FF0B4B1800F9
:100C800000F0D4FD0A4B802292000A490A4805F080
:100C900053FA0A4B01221A70094B1800FFF79EFE07
:100CA000C046BD4604B080BD001002405001002087
:100CB000046D0008D002002068020020000000201F
:100CC0000C6D000880B584B002AF00F019FE00F092
:100CD000A9F8FFF7DDFCFFF7B5FCFFF739FD00F0E1
:100CE00043FA00F035F900F06DFA3D4A3D493E48BF
:100CF0003E4B0093802300F033FC3D4B802292005A
:100D000038493C4805F018FA3B4B1800FFF766FEDF
:100D10003A4B180000F064FE00237B60384B18004B
:100D2000FFF75CFE642000F05BFE364B00221A7079
:100D3000354B1800FFF752FE642000F051FE314B96
:100D40001B78DBB2022B05D0F2DC002B29D0012B63
:100D50002AD044E000F03AFE02007B68D31A274A0A
:100D600093423BD9294B1B7801225340DBB2002B25
:100D700034D0274B1800FFF731FE264A1A4B1100DA
:100D8000180000F029FC642000F02AFE224A164BCD
:100D90001100180000F020FC00F018FE03007B603A
:100DA0001CE0FFF745FE1AE01C4B1800FFF716FE8B
:100DB000184A0D4B1100180000F00EFC642000F0E2
:100DC0000FFE174A084B1100180000F005FC6420C4
:100DD00000F006FE0B4B00221A7000E0C046A7E7A9
:100DE000D0000020D002002050010020DD080008C3
:100DF000046D0008680200201C6D00081027000028
:100E0000246D000800000020386D0008A4020020B6
:100E1000446D00085C6D0008646D0008706D00088A
:100E2000846D000890B59FB000AF40243B191800B6
:100E300038231A00002105F033FB2C23FB1818007F
:100E400014231A00002105F02BFB3B1D180028235A
:100E50001A00002105F024FB334B1B68334A1A406B
:100E6000314B802109010A431A6021007B181A22A4
:100E70001A607B180122DA607B1810221A617B1835
:100E800001225A617B180122DA617B1800221A6262
:100E90007B18802212025A627B1800229A627B1809
:100EA000180001F0EDFD031E01D000F04CF82C21DC
:100EB0007B180F221A607B1800225A607B180022D0
:100EC0009A607B180022DA607B1800221A617B1876
:100ED0000021180002F0A8F9031E01D000F033F839
:100EE0003B1D2D221A603B1D0022DA603B1D802233
:100EF00012015A613B1D00229A613B1D8022920221
:100F00005A603B1D180002F093FB031E01D000F055
:100F10001AF8074BDA68064B802109020A43DA60A7
:100F2000C046BD461FB090BD00700040FFE7FFFF08
:100F30000010024080B582B000AF7860C046C04665
:100F4000BD4602B080BD80B500AFC046BD4680BD85
:100F500080B500AF164B174A1A60154B00225A6035
:100F6000134B7F229A60124BFF22DA60104B002253
:100F70001A610F4B00225A610D4B00229A610C4BF3
:100F80000022DA610A4B180002F0F0FC031E01D0C7
:100F9000FFF7D9FF0849064B0022180002F0E6FED1
:100FA000031E01D0FFF7CFFFC046BD4680BDC0463F
:100FB000A8020020002800400B50000080B582B03D
:100FC00000AF78607B681B680A4A93420ED10A4BD7
:100FD0001A6D094B8021C9020A431A6500220021BB
:100FE000022000F019FE022000F02BFEC046BD4694
:100FF00002B080BD002800400010024080B500AF64
:10100000074B5A6B064B01210A435A63044B9A6BF8
:10101000034B802149050A439A63C046BD4680BD03
:101020000010024080B500AFC046FDE780B500AFBC
:10103000C046FDE780B500AFC046BD4680BD80B567
:1010400000AFC046BD4680BD80B500AF00F0ACFC2F
:10105000C046BD4680BD000080B500AF034B180000
:1010600002F0C0FFC046BD4680BDC046A8020020B9
:1010700080B500AF054B180000F0D3FF044B1800FB
:1010800000F0CFFFC046BD4680BDC046280400200A
:10109000E003002080B500AF054B180000F0C1FF51
:1010A000044B180000F0BDFFC046BD4680BDC046E1
:1010B000B80400207004002080B500AF034B180076
:1010C00003F0FEF9C046BD4680BDC046D0020020F8
:1010D00080B582B000AF78607A68044B11001800C8
:1010E00000F0C9FAC046BD4602B080BD50010020E4
:1010F00080B586B000AF7860144A154BD31A7B6177
:101100007B693B61134B1B68002B02D1114B124AC8
:101110001A60104B1A687B68D3183A699A4207D252
:1011200005F002FA03000C221A6001235B4209E079
:10113000084B1B68FB60074B1A687B68D218054B8D
:101140001A60FB681800BD4606B080BD0050002044
:1011500000040000CC0200205006002080B500AF43
:10116000C046BD4680BD000080B500AF134B144A99
:101170001A60124BE12252025A60104B00229A6010
:101180000E4B0022DA600D4B00221A610B4B0C2231
:101190005A610A4B00229A61084B00221A62074BDF
:1011A00000225A62054B180002F04CFF031E01D0CA
:1011B000FFF7C9FEC046BD4680BDC046D002002034
:1011C0000048004080B500AF144B154A1A60134B1D
:1011D000962292015A60114B00229A600F4B002216
:1011E000DA600E4B00221A610C4B0C225A610B4B39
:1011F00000229A61094B0022DA61084B00221A6230
:10120000064B00225A62054B180002F01BFF031E1A
:1012100001D0FFF798FEC046BD4680BD58030020B0
:101220000038014090B58BB000AF786014243B19B2
:10123000180014231A00002105F032F97B681B689E
:10124000874A934200D084E0864B9A6B854B80217D
:10125000C9020A439A63834BDA6A824B01210A432B
:10126000DA62804BDB6A012213403B613B6921005B
:101270007B180C221A607B1802225A607B1800220D
:101280009A607B180322DA607B1806221A617A18AA
:10129000A023DB051100180000F0AAFF724B734A6F
:1012A0001A60714B05225A606F4B00229A606E4B98
:1012B0000022DA606C4B80221A616B4B00225A616B
:1012C000694B00229A61684B0022DA61664B00226A
:1012D0001A62654B180000F0E1FC031E01D0FFF715
:1012E00032FE7B68604A5A675F4B7A689A62604B4D
:1012F000604A1A605E4B05225A605D4B10229A606C
:101300005B4B0022DA605A4B80221A61584B002254
:101310005A61574B00229A61554B0022DA61544BB7
:1013200000221A62524B180000F0B8FC031E01D0D4
:10133000FFF709FE7B684E4A1A674D4B7A689A623E
:10134000002200211D2000F067FC1D2000F079FC28
:1013500082E07B681B68484A934200D07CE0414BA6
:101360005A6B404B8021C9010A435A633D4BDA6AEC
:101370003C4B01210A43DA623A4BDB6A01221340FB
:10138000FB60FB6814217B18C022D2001A607B1816
:1013900002225A607B1800229A607B180322DA60CE
:1013A0007B1804221A617A18A023DB0511001800AB
:1013B00000F01EFF314B324A1A60304B03225A6054
:1013C0002E4B00229A602D4B0022DA602B4B80229C
:1013D0001A612A4B00225A61284B00229A61274B3E
:1013E0000022DA61254B00221A62244B180000F01B
:1013F00055FC031E01D0FFF7A6FD7B681F4A5A6704
:101400001E4B7A689A621F4B1F4A1A601D4B0322BB
:101410005A601C4B10229A601A4B0022DA60194B5A
:1014200080221A61174B00225A61164B00229A61E2
:10143000144B0022DA61134B00221A62114B180080
:1014400000F02CFC031E01D0FFF77DFD7B680D4AE8
:101450001A670C4B7A689A62C046BD460BB090BDC5
:101460000048004000100240E0030020300002402D
:10147000280400201C0002400038014070040020B5
:1014800058000240B80400204400024080B582B0F9
:1014900000AF78607B681B681E4A934219D11E4BCF
:1014A0009A6B1D4B1D490A409A63A023DB050C2152
:1014B000180001F01BF87B685B6F180000F066FCF9
:1014C0007B681B6F180000F061FC1D2000F0C9FB59
:1014D0001CE07B681B68124A934217D10E4B5A6B73
:1014E0000D4B10490A405A63C023DA00A023DB05E4
:1014F0001100180000F0FAFF7B685B6F180000F025
:1015000045FC7B681B6F180000F040FCC046BD46E0
:1015100002B080BD0048004000100240FFFFFBFF0A
:1015200000380140FFBFFFFF80B582B000AF786098
:1015300000217B680A1C9A817B680A1C5A817A68A0
:101540008A235B000021D1527B6814338022520031
:101550000021180004F0A4FFC046BD4602B080BDC3
:1015600080B584B000AFF860B9607A601A00BB1C27
:101570001A80FB68002B09D0BB68002B06D07B6863
:10158000002B03D0BB1C1B88002B01D101231FE0C3
:10159000FB68BA681A60FB687A685A60FB68BA1C14
:1015A00012881A81FB68BA691A61FA681823FF3336
:1015B0000021D154FB681800FFF7B6FFFB681868DC
:1015C000FB681733FF330122190002F06DFE0300A0
:1015D0001800BD4604B080BD80B584B000AF78600F
:1015E00039607B68002B02D03B68002B01D10123BE
:1015F0000FE03B681800FEF787FD0300FB607B6887
:101600001868FB689AB201235B42396802F0ACFDAE
:1016100003001800BD4604B080BD80B584B000AFA3
:1016200078600A00FB1C1A707B685B899BB25A1CAD
:101630007B681B8919001000FEF7E8FE0B001A00FA
:101640000E217B181A807B689B899BB27A181288BE
:101650009A420CD07B685B687A68528992B29B1878
:10166000FA1C12781A707B687A1812885A81C04660
:10167000BD4604B080BD90B585B000AF78603960DC
:101680007B68002B00D17EE07B681B683A689A4239
:1016900000D078E00F243B1979688B2252008A5CD5
:1016A0001A703B191A787B6811001800FFF7B5FF14
:1016B0007A688A235B00D35AFE2B47D83B191B78E4
:1016C0000D2B13D03B191B780A2B0FD07A688A2375
:1016D0005B00D35A5A1C90B279688A225200885211
:1016E0001A007B689B183A1912781A750F22BB18DA
:1016F0001B780D2B03D0BB181B780A2B33D17A68CB
:101700008A235B00D35A1A007B689B1800221A7543
:101710007A688A235B00D35A002B09D07B681B6947
:10172000002B05D07B681B697A681432100098473B
:101730007A688A235B000021D1527B6814338022AF
:1017400052000021180004F0ABFE0CE07A688A23F6
:101750005B000021D1527B681433802252000021AB
:10176000180004F09DFE7A681823FF33D35C002B29
:101770000AD17B6818687B681733FF330122190090
:1017800002F092FD00E0C046BD4605B090BD80B5B8
:1017900084B000AF78607B68002B01D1012340E06A
:1017A0007A681823FF33D35C002B01D0002338E084
:1017B0007A681823FF330121D1547B681B68180015
:1017C00002F0D0FD7B681800FFF7AEFE08217B1801
:1017D000802292031A607B1810229A807B180022C4
:1017E0009A717B6818687B1819685A6804F028FB9E
:1017F000031E01D0012314E07B681B681B689A68F4
:101800007B681B681B688021C9030A439A607B6858
:101810001B68180004F07AFB031E01D0012300E0CE
:1018200000231800BD4604B080BD000080B582B022
:1018300000AF78607B68002B01D101232FE07A682C
:101840001823FF33D35C002B01D1002327E07A68F3
:101850001823FF330021D1547B681B681B689A68EA
:101860007B681B681B6810490A409A607B681B688C
:10187000180004F07CFB031E01D001230FE07B68FD
:101880001B681B68802252031A627B6818687B6899
:101890001733FF330122190002F006FD0300180080
:1018A000BD4602B080BDC046FFFFBFFF0D48854664
:1018B000FFF754FC0C480D490D4A002302E0D458B0
:1018C000C4500433C4188C42F9D30A4A0A4C00238A
:1018D00001E013600432A242FBD304F02BFEFFF7B9
:1018E000F1F9FEE700500020000000206000002019
:1018F000446E0008600000204C060020FEE7000057
:1019000080B582B000AFFB1D00221A700B4B1A6825
:101910000A4B40210A431A60002000F011F8031E10
:1019200003D0FB1D01221A7001E0FFF767FBFB1DCE
:101930001B781800BD4602B080BDC04600200240A2
:1019400090B583B000AF7860144B1C68144B1B78C3
:101950001900FA239800FEF7E9FB030019002000A4
:10196000FEF7E4FB0300180000F08BF9031E01D022
:1019700001230FE07B68032B0BD8796801235B42BE
:101980000022180000F048F9064B7A681A6000231C
:1019900000E001231800BD4603B090BD0400002004
:1019A0000C0000200800002080B500AF054B1B781C
:1019B0001A00054B1B68D218034B1A60C046BD467F
:1019C00080BDC0460C0000200005002080B500AF9F
:1019D000024B1B681800BD4680BDC04600050020B4
:1019E00080B584B000AF7860FFF7F0FF0300BB6004
:1019F0007B68FB60FB68013305D00A4B1B781A003B
:101A0000FB689B18FB60C046FFF7E0FF0200BB6865
:101A1000D31AFA689A42F7D8C046C046BD4604B009
:101A200080BDC0460C00002080B500AF044B1A6892
:101A3000034B02218A431A60C046BD4680BDC046A2
:101A400010E000E080B500AF044B1A68034B0221A0
:101A50000A431A60C046BD4680BDC04610E000E0A3
:101A600080B500AF044B5A68034B02218A435A6089
:101A7000C046BD4680BDC0460058014080B582B01A
:101A800000AF0200FB1D1A70FB1D1B787F2B09D8CD
:101A9000FB1D1B781A001F231A40044B01219140A3
:101AA0000A001A60C046BD4602B080BD00E100E0F9
:101AB00080B582B000AF0200FB1D1A70FB1D1B78C1
:101AC0007F2B10D8FB1D1B781A001F2313400849D9
:101AD00001229A40130080228B50BFF34F8FC046E3
:101AE000BFF36F8FC046C046BD4602B080BDC04642
:101AF00000E100E090B583B000AF02003960FB1D4B
:101B00001A70FB1D1B787F2B28D82F4AFB1D1B78D2
:101B10005BB29B08C0339B009B58FA1D12781100E2
:101B200003220A40D200FF2191400A00D2431A400A
:101B300011003B689B01FF221A40FB1D1B78180017
:101B400003230340DB009A401F48FB1D1B785BB258
:101B50009B080A43C0339B001A5031E01B4AFB1D0F
:101B60001B7819000F230B40083B9B0806339B0092
:101B7000D31804331B68FA1D1278110003220A409F
:101B8000D200FF2191400A00D2431A4011003B6865
:101B90009B01FF221A40FB1D1B7818000323034002
:101BA000DB009A400948FB1D1B781C000F232340D3
:101BB000083B9B080A4306339B00C31804331A6092
:101BC000C046BD4603B090BD00E100E000ED00E07E
:101BD00080B582B000AF78607B685A1E80235B04BA
:101BE0009A4201D3012310E00A4B7A68013A5A6005
:101BF00001235B4203211800FFF77CFF054B002205
:101C00009A60044B07221A6000231800BD4602B0F8
:101C100080BDC04610E000E080B584B000AFB96080
:101C20007A600F217B18021C1A70BA687B181B7827
:101C30005BB211001800FFF75DFFC046BD4604B05F
:101C400080BD80B582B000AF0200FB1D1A70FB1D85
:101C50001B785BB21800FFF711FFC046BD4602B00B
:101C600080BD80B582B000AF0200FB1D1A70FB1D65
:101C70001B785BB21800FFF71BFFC046BD4602B0E1
:101C800080BD80B582B000AF78607B681800FFF738
:101C90009FFF03001800BD4602B080BD80B584B030
:101CA00000AF78607B68002B01D1012361E07B6885
:101CB0001B68324A9446634414211800FEF736FA32
:101CC00003009A007B685A647B682D4A1A647B681B
:101CD0002522022199547B681B681B68FB60FB6806
:101CE000284A1340FB607B689A687B68DB681A436C
:101CF0007B681B691A437B685B691A437B689B6935
:101D00001A437B68DB691A437B681B6A1343FA68D2
:101D10001343FB607B681B68FA681A607B689A68EB
:101D20008023DB019A4218D0174B1A687B685B6CE2
:101D30001C210B400F2199400B00D943124B0A4044
:101D40001A60114B19687B685A687B685B6C1C20B1
:101D500003409A400C4B0A431A607B680022DA6306
:101D60007B682522012199547B6824220021995403
:101D700000231800BD4604B080BDC046F8FFFDBF7B
:101D8000000002400F80FFFFA800024080B582B033
:101D900000AF78607B68002B01D101234AE07B68AB
:101DA0001B681A687B681B6801218A431A607B687C
:101DB0001B68224A9446634414211800FEF7B6F9C2
:101DC00003009A007B685A647B681D4A1A647B682A
:101DD0001B6800221A607B685B6C1C221A407B68BF
:101DE0001B6C012191400A005A60164B1A687B68EF
:101DF0005B6C1C210B400F2199400B00D943114B08
:101E00000A401A607B680022DA627B6800221A634B
:101E10007B6800225A637B6800229A637B680022F9
:101E2000DA637B682522002199547B6824220021F3
:101E3000995400231800BD4602B080BDF8FFFDBFD5
:101E400000000240A800024080B586B000AFF860F4
:101E5000B9607A603B601723FB1800221A70FB6898
:101E600024229B5C012B01D102234FE0FB6824223A
:101E700001219954FB6825229B5CDBB2012B3AD1EE
:101E8000FB68252202219954FB680022DA63FB6873
:101E90001B681A68FB681B6801218A431A603B684B
:101EA0007A68B968F86800F074F9FB681B6B002B5E
:101EB00008D0FB681B681A68FB681B680E210A4380
:101EC0001A600FE0FB681B681A68FB681B68042136
:101ED0008A431A60FB681B681A68FB681B680A2142
:101EE0000A431A60FB681B681A68FB681B680121BB
:101EF0000A431A6007E0FB68242200219954172343
:101F0000FB1802221A701723FB181B781800BD4615
:101F100006B080BD80B584B000AF78600F23FB1899
:101F200000221A707B6825229B5CDBB2022B08D052
:101F30007B680422DA637B68242200219954012300
:101F400024E07B681B681A687B681B680E218A4343
:101F50001A607B681B681A687B681B6801218A43CA
:101F60001A607B685B6C1C221A407B681B6C012129
:101F700091400A005A607B682522012199547B68B0
:101F80002422002199540F23FB181B781800BD460A
:101F900004B080BD80B584B000AF78600F217B189D
:101FA00000221A707B6825229B5CDBB2022B06D0D4
:101FB0007B680422DA637B1801221A702AE07B68AE
:101FC0001B681A687B681B680E218A431A607B684D
:101FD0001B681A687B681B6801218A431A607B684A
:101FE0005B6C1C221A407B681B6C012191400A002B
:101FF0005A607B682522012199547B6824220021A4
:1020000099547B689B6B002B04D07B689B6B7A6830
:10201000100098470F23FB181B781800BD4604B02A
:1020200080BD80B584B000AF78607B681B6C1B6896
:10203000FB607B681B681B68BB607B685B6C1C2259
:10204000134004229A401300FA68134026D0BB685C
:102050000422134022D07B681B681B682022134097
:1020600007D17B681B681A687B681B6804218A4358
:102070001A607B685B6C1C221A407B681B6C042115
:1020800091400A005A607B681B6B002B00D171E005
:102090007B681B6B7A68100098476BE07B685B6C11
:1020A0001C22134002229A401300FA6813402DD0DC
:1020B000BB680222134029D07B681B681B68202262
:1020C00013400BD17B681B681A687B681B680A2168
:1020D0008A431A607B682522012199547B685B6CD6
:1020E0001C221A407B681B6C022191400A005A6036
:1020F0007B682422002199547B68DB6A002B39D04D
:102100007B68DB6A7A681000984733E07B685B6C19
:102110001C22134008229A401300FA6813402AD068
:10212000BB680822134026D07B681B681A687B684E
:102130001B680E218A431A607B685B6C1C221A4064
:102140007B681B6C012191400A005A607B68012268
:10215000DA637B682522012199547B6824220021BF
:1021600099547B685B6B002B05D07B685B6B7A684E
:1021700010009847C046C046BD4604B080BD80B53B
:1021800082B000AF78607B68DB6B1800BD4602B0A0
:1021900080BD80B584B000AFF860B9607A603B6004
:1021A000FB685B6C1C221A40FB681B6C0121914090
:1021B0000A005A60FB681B683A685A60FB689B68B3
:1021C000102B08D1FB681B687A689A60FB681B6853
:1021D000BA68DA6007E0FB681B68BA689A60FB6857
:1021E0001B687A68DA60C046BD4604B080BD000056
:1021F00080B586B000AF7860396000237B61002332
:10220000FB6000233B6155E13B681B6801217A6953
:1022100091400A001340FB60FB68002B00D146E1AF
:102220003B685B6803221340012B05D03B685B6869
:1022300003221340022B30D17B689B683B617B6992
:102240005B0003229A401300DA433B6913403B6171
:102250003B68DA687B695B009A4013003A69134374
:102260003B617B683A699A607B685B683B610122ED
:102270007B699A401300DA433B6913403B613B683A
:102280005B681B0901221A407B699A4013003A6976
:1022900013433B617B683A695A603B685B68032281
:1022A0001340032B17D07B68DB683B617B695B00C5
:1022B00003229A401300DA433B6913403B613B68B9
:1022C0009A687B695B009A4013003A6913433B614B
:1022D0007B683A69DA603B685B6803221340022B33
:1022E00023D17B69DA087B6808329200D3583B61BE
:1022F0007B69072213409B000F229A401300DA43A8
:102300003B6913403B613B681A697B6907210B40BD
:102310009B009A4013003A6913433B617B69DA08DA
:102320007B68083292003969D1507B681B683B6139
:102330007B695B0003229A401300DA433B69134038
:102340003B613B685B6803221A407B695B009A40F3
:1023500013003A6913433B617B683A691A603B6832
:102360005A68C0239B02134000D1A0E0574B5A6B20
:10237000564B01210A435A63554A7B699B08023335
:102380009B009B583B617B69032213409B000F22FB
:102390009A401300DA433B6913403B617A68A023FB
:1023A000DB059A421FD07B684A4A934219D07B686A
:1023B000494A934213D07B68484A93420DD07B68C8
:1023C000474A934207D07B68464A934201D105238E
:1023D0000AE0062308E0042306E0032304E00223C6
:1023E00002E0012300E000237A6903210A40920001
:1023F00093403A6913433B6135497B699B0802333B
:102400009B003A695A50384B9B683B61FB68DA4342
:102410003B6913403B613B685A6880235B03134070
:1024200003D03A69FB6813433B612F4B3A699A60CA
:102430002D4BDB683B61FB68DA433B6913403B6132
:102440003B685A6880239B03134003D03A69FB68BA
:1024500013433B61244B3A69DA60234B5B683B6171
:10246000FB68DA433B6913403B613B685A68802351
:102470009B02134003D03A69FB6813433B611A4B3C
:102480003A695A60184B1B683B61FB68DA433B6949
:1024900013403B613B685A6880235B02134003D0C2
:1024A0003A69FB6813433B610F4B3A691A607B69D9
:1024B00001337B613B681A687B69DA40131E00D0E8
:1024C000A2E6C046C046BD4606B080BD0010024030
:1024D000000001400004005000080050000C0050B3
:1024E00000100050001C00500004014080B586B070
:1024F00000AF7860396000237B6100233B610023DB
:10250000FB60BCE001227B699A403B6813403B6161
:102510003B69002B00D1AFE05E4A7B699B08023328
:102520009B009B58FB607B69032213409B000F229A
:102530009A40FB681340FB607A68A023DB059A424F
:102540001FD07B68544A934219D07B68534A934208
:1025500013D07B68524A93420DD07B68514A934214
:1025600007D07B68504A934201D105230AE0062335
:1025700008E0042306E0032304E0022302E0012331
:1025800000E000237A6903210A4092009340FA6830
:102590009A4232D1454B1A683B69D943434B0A40B2
:1025A0001A60424B5A683B69D943404B0A405A6013
:1025B0003E4BDA683B69D9433C4B0A40DA603B4BFF
:1025C0009A683B69D943394B0A409A607B69032278
:1025D00013409B000F229A401300FB602D4A7B6939
:1025E0009B0802339B009A58FB68D94329487B69B2
:1025F0009B080A4002339B001A507B681A687B696B
:102600005B00032199400B001A437B681A607B69C9
:10261000DA087B6808329200D3587A6907210A40A9
:1026200092000F2191400A00D1437A69D2081940E3
:102630007B6808329200D1507B68DB687A6952006F
:10264000032191400A00D2431A407B68DA607B681C
:102650005B6801217A6991400A00D2431A407B6885
:102660005A607B689B687A695200032191400A0096
:10267000D2431A407B689A607B6901337B613A6878
:102680007B69DA40131E00D03CE7C046C046BD4619
:1026900006B080BD0000014000040050000800505A
:1026A000000C005000100050001C005000040140BD
:1026B00080B582B000AF786008001100BB1C021C1E
:1026C0001A807B1C0A1C1A707B1C1B78002B04D000
:1026D000BB1C1A887B689A6103E0BB1C1A887B6864
:1026E0009A62C046BD4602B080BD000080B582B08F
:1026F00000AF78607B68002B01D101238FE07B68FD
:1027000041229B5CDBB2002B07D17B684022002179
:1027100099547B681800FEF75BF87B6841222421FE
:1027200099547B681B681A687B681B6801218A437F
:102730001A607B685A687B681B683B490A401A61CB
:102740007B681B689A687B681B6838490A409A60F6
:102750007B68DB68012B08D17B689A687B681B6803
:10276000802109020A439A6007E07B689A687B68C7
:102770001B68842109020A439A607B68DB68022B8C
:1027800009D17B681B685A687B681B688021090136
:102790000A435A6007E07B681B685A687B681B68BD
:1027A00023490A405A607B681B685A687B681B682B
:1027B00020490A435A607B681B68DA687B681B689B
:1027C0001A490A40DA607B681A697B685B691A43B8
:1027D00011007B689B691A027B681B680A43DA60F8
:1027E0007B68D9697B681A6A7B681B680A431A6030
:1027F0007B681B681A687B681B6801210A431A60A2
:102800007B6800225A647B684122202199547B68AE
:1028100000221A637B684222002199540023180089
:10282000BD4602B080BDC046FFFFFFF0FF7FFFFF47
:10283000FFF7FFFF0080000280B582B000AF786034
:102840007B68002B01D1012322E07B6841222421F7
:1028500099547B681B681A687B681B6801218A434E
:102860001A607B681800FDF7F7FF7B6800225A6446
:102870007B684122002199547B6800221A637B689F
:102880004222002199547B68402200219954002360
:102890001800BD4602B080BD80B582B000AF786040
:1028A00039607B6841229B5CDBB2202B38D17B688E
:1028B00040229B5C012B01D1022332E07B68402245
:1028C000012199547B684122242199547B681B681B
:1028D0001A687B681B6801218A431A607B681B6841
:1028E0001A687B681B6811490A401A607B681B687C
:1028F00019687B681B683A680A431A607B681B6822
:102900001A687B681B6801210A431A607B684122B0
:10291000202199547B68402200219954002300E033
:1029200002231800BD4602B080BDC046FFEFFFFF86
:1029300080B584B000AF786039607B6841229B5CD1
:10294000DBB2202B39D17B6840229B5C012B01D16B
:10295000022333E07B684022012199547B684122A5
:10296000242199547B681B681A687B681B680121C5
:102970008A431A607B681B681B68FB60FB68114A0E
:102980001340FB603B681B02FA681343FB607B68E3
:102990001B68FA681A607B681B681A687B681B688A
:1029A00001210A431A607B684122202199547B68E7
:1029B000402200219954002300E002231800BD4664
:1029C00004B080BDFFF0FFFF80B586B000AF786037
:1029D0000A00FB1C1A7000237B61254B1A688023B8
:1029E0009B0013403B61234B1B6A01221340FB6099
:1029F0003B69002B08D0FB68002B05D01C4B1A68E4
:102A00001B4B1D490A401A60194B1B687B617B698F
:102A1000032293437B617A697B6813437B61144B88
:102A20007A691A60154B1A69144B04210A431A611A
:102A3000FB1C1B78012B01D130BF02E040BF20BF3F
:102A400020BF0E4B1A690D4B04218A431A613B6962
:102A5000002B09D0FB68002B06D0054B1A68044BED
:102A6000802189000A431A60C046BD4606B080BD79
:102A70000070004000000140FFFDFFFF00ED00E09E
:102A8000B0B58AB000AF78607B68002B02D101231B
:102A900000F0BFFBC94BDB680C221340FB61C74B46
:102AA000DA6880235B021340BB617B681B680122EC
:102AB000134000D17EE0FB69082B07D0FB690C2B8B
:102AC00012D1BA6980235B029A420DD1BB4B1A68BE
:102AD00080239B02134000D16BE07B685B68002B76
:102AE00067D1012300F095FB7B685A6880235B0265
:102AF0009A4207D1B14B1A68B04B802149020A4370
:102B00001A6027E07B685A68A023DB029A420ED144
:102B1000AA4B1A68A94B8021C9020A431A60A74B25
:102B20001A68A64B802149020A431A6012E0A34B9F
:102B30001A68A24BA2490A401A60A04B1A68802367
:102B40005B021340FB60FB689C4B1A689B4B9D49E2
:102B50000A401A607B685B68002B15D0FEF736FFD1
:102B600003007B6109E0FEF731FF02007B69D31AA5
:102B7000642B02D9032300F04CFB904B1A6880238E
:102B80009B021340EFD015E0FEF720FF03007B61AE
:102B900008E0FEF71BFF02007B69D31A642B01D902
:102BA000032336E3854B1A6880239B021340F0D140
:102BB00000E0C0467B681B680222134000D199E008
:102BC0007B68DB687B627B6A2022134009D07B4BE9
:102BD0001A687A4B20210A431A607B6A20229343A9
:102BE0007B62FB69042B05D0FB690C2B3ED1BB69D2
:102BF000002B3BD1714B1B680422134004D07B6A2D
:102C0000002B01D1012304E36C4B5B686E4A134037
:102C100019007B681B691A02684B0A435A60674BAC
:102C20001B68092293431900644B7A6A0A431A60AD
:102C300000F042FC0100614BDB681B090F221340CE
:102C4000624AD35C0A00DA40614B1A60614B1B6830
:102C500013257C191800FEF773FE030023707B19FF
:102C60001B78002B46D07B191B78D2E27B6A002BA5
:102C700027D0524B1B680922934319004F4B7A6AA5
:102C80000A431A60FEF7A2FE03007B6108E0FEF72C
:102C90009DFE02007B69D31A022B01D90323B8E2FF
:102CA000464B1B6804221340F1D0444B5B68464AF4
:102CB000134019007B681B691A02404B0A435A6093
:102CC00018E03E4B1A683D4B01218A431A60FEF71B
:102CD0007DFE03007B6108E0FEF778FE02007B6961
:102CE000D31A022B01D9032393E2344B1B6804222D
:102CF0001340F1D17B681B681022134000D1A2E081
:102D0000FB69002B40D12D4B1A6880239B00134098
:102D100005D07B68DB69002B01D1012379E2274BC9
:102D20005B682D4A134019007B685A6A234B0A439B
:102D30005A60224B5B681B02190A7B681B6A1A06E1
:102D40001E4B0A435A607B685B6A5B0B013380222F
:102D500012029A40194BDB681B090F210B401B49DB
:102D6000CB5CDA401A4B1A601A4B1B6813257C198E
:102D70001800FEF7E5FD030023707B191B78002B7C
:102D800061D07B191B7844E27B68DB69002B40D063
:102D90000A4B1A68094B802149000A431A60FEF762
:102DA00015FE03007B6119E0FEF710FE02007B694F
:102DB000D31A022B12D903232BE2C0460010024083
:102DC000FFFFFEFFFFFFFBFFFFE0FFFF946D00082A
:102DD0000400002008000020FF1FFFFFCA4B1A68F4
:102DE00080239B001340DFD0C74B5B68C74A13406A
:102DF00019007B685A6AC44B0A435A60C24B5B682D
:102E00001B02190A7B681B6A1A06BF4B0A435A60E9
:102E100019E0BD4B1A68BC4BBD490A401A60FEF769
:102E2000D5FD03007B6108E0FEF7D0FD02007B6961
:102E3000D31A022B01D90323EBE1B34B1A68802389
:102E40009B001340F0D17B681B680822134036D0EA
:102E50007B685B69002B19D0AB4B1A6DAA4B012123
:102E60000A431A65FEF7B2FD03007B6108E0FEF736
:102E7000ADFD02007B69D31A022B01D90323C8E1FF
:102E8000A14B1B6D02221340F1D018E09E4B1A6D2E
:102E90009D4B01218A431A65FEF798FD03007B6173
:102EA00008E0FEF793FD02007B69D31A022B01D9DB
:102EB0000323AEE1944B1B6D02221340F1D17B68DA
:102EC0001B680422134000D1AEE023203B180022EF
:102ED0001A708D4B9A6B80235B05134009D18A4B86
:102EE0009A6B894B802149050A439A633B1801225A
:102EF0001A70884B1A6880235B0013401AD1854BE7
:102F00001A68844B802149000A431A60FEF75EFD6F
:102F100003007B6108E0FEF759FD02007B69D31ACC
:102F2000642B01D9032374E17A4B1A6880235B0078
:102F30001340F0D07B689A6880235B009A4207D1E7
:102F4000714B1A6D704B802149000A431A6531E0BC
:102F50007B689B68002B0CD16B4B1A6D6A4B6C49DC
:102F60000A401A65684B1A6D674B6B490A401A652F
:102F700020E07B689A68A023DB009A420ED1624B66
:102F80001A6D614B8021C9000A431A655E4B1A6DA8
:102F90005D4B802149000A431A650BE05A4B1A6DBC
:102FA000594B5B490A401A65574B1A6D564B5A49A3
:102FB0000A401A657B689B68002B15D0FEF706FD5A
:102FC00003007B6109E0FEF701FD02007B69D31A73
:102FD000524A934201D903231BE14B4B1A6D8023C4
:102FE0009B001340EFD014E0FEF7F0FC03007B6180
:102FF00009E0FEF7EBFC02007B69D31A474A9342D3
:1030000001D9032305E1404B1A6D80239B00134037
:10301000EFD12323FB181B78012B05D13A4B9A6B78
:10302000394B3F490A409A637B681B682022134052
:1030300049D07B689B69002B26D0334B9A68324B72
:1030400001210A439A60304B5A6B2F4B01210A43EE
:103050005A63344B1A6A334B802189010A431A623E
:10306000FEF7B4FC03007B6108E0FEF7AFFC020052
:103070007B69D31A022B01D90323CAE0224B9B6838
:1030800002221340F1D01EE01F4B9A681E4B012113
:103090008A439A60234B1A6A224B23490A401A62D8
:1030A000FEF794FC03007B6108E0FEF78FFC020052
:1030B0007B69D31A022B01D90323AAE0124B9B6828
:1030C00002221340F1D17B689B6A002B00D19FE064
:1030D000FB690C2B00D178E07B689B6A022B59D1ED
:1030E000094B1A68084B11490A401A60FEF76EFC3A
:1030F00003007B611CE0FEF769FC02007B69D31AC8
:10310000022B15D9032384E000100240FF1FFFFFAC
:10311000FFFEFFFF00700040FFFBFFFF8813000071
:10312000FFFFFFEF00000140FFDFFFFFFFFFFFFE9B
:103130003A4B1A6880239B041340DCD1374BDB6881
:10314000374A134019007B68DA6A7B681B6B1A43A5
:103150007B685B6B1A43314B0A43DA602F4B1A686A
:103160002E4B802149040A431A60FEF72FFC03000E
:103170007B6108E0FEF72AFC02007B69D31A022B70
:1031800001D9032345E0254B1A6880239B04134093
:10319000F0D03DE0214B1A68204B22490A401A60CA
:1031A000FEF714FC03007B6108E0FEF70FFC020051
:1031B0007B69D31A022B01D903232AE0174B1A6823
:1031C00080239B041340F0D122E07B689B6A012B93
:1031D00001D101231DE0114BDB68BB61BA6980237B
:1031E0005B021A407B68DB6A9A420FD1BA69F0230E
:1031F0009B031A407B681B6B9A4207D1BA69C023B4
:103200001B041A407B685B6B9A4201D0012300E0EB
:1032100000231800BD460AB0B0BDC04600100240F1
:10322000FFFF02FFFFFFFFFEB0B584B000AF786084
:1032300039607B68002B01D1012328E1964B1B6884
:10324000012213403A689A421ED9934B1B6801220F
:1032500093431900904B3A680A431A60FEF7B6FB95
:103260000300FB6009E0FEF7B1FB0200FB68D31A24
:103270008A4A934201D9032309E1874B1B68012243
:1032800013403A689A42EED17B681B6802221340D1
:1032900009D0834BDB68F022934319007B689A685E
:1032A0007F4B0A43DA607B681B680122134000D120
:1032B00089E07B685B68022B07D1794B1A68802311
:1032C0009B02134020D10123E1E07B685B68032B64
:1032D00007D1734B1A6880239B04134014D1012338
:1032E000D5E07B685B68012B06D16D4B1B6804221F
:1032F000134009D10123CAE0694B1A6880239B005F
:10330000134001D10123C2E0654BDB6803229343E4
:1033100019007B685A68624B0A43DA60FEF756FB75
:103320000300FB607B685B68022B11D109E0FEF7AC
:103330004DFB0200FB68D31A584A934201D903237C
:10334000A5E0574BDB680C221340082BEFD13AE085
:103350007B685B68032B11D109E0FEF737FB0200A5
:10336000FB68D31A4D4A934201D903238FE04C4B9B
:10337000DB680C2213400C2BEFD124E07B685B68E8
:10338000012B1BD109E0FEF721FB0200FB68D31AD9
:10339000424A934201D9032379E0414BDB680C2276
:1033A0001340042BEFD10EE0FEF710FB0200FB6888
:1033B000D31A3A4A934201D9032368E0384BDB68B9
:1033C0000C221340F0D1344B1B68012213403A68A1
:1033D0009A421ED2304B1B680122934319002E4B98
:1033E0003A680A431A60FEF7F1FA0300FB6009E04D
:1033F000FEF7ECFA0200FB68D31A284A934201D97F
:10340000032344E0244B1B68012213403A689A428C
:10341000EED17B681B680422134009D0204BDB6887
:10342000204A134019007B68DA681D4B0A43DA60B2
:103430007B681B68082213400AD0194BDB681A4AC4
:10344000134019007B681B69DA00154B0A43DA60E8
:1034500000F032F80100124BDB681B090F22134009
:10346000124AD35C0A00DA40114B1A60114B1B68F8
:103470000B257C191800FEF763FA030023707B19F3
:103480001B78002B02D07B191B7800E0002318006A
:10349000BD4604B0B0BDC046002002408813000005
:1034A00000100240FFF8FFFFFFC7FFFF946D000808
:1034B000040000200800002080B586B000AF3C4B1F
:1034C000DB68FB60FB680C2213400C2B13D05CD82C
:1034D000042B02D0082B0BD057E0354B1B68102271
:1034E000134002D0334B3B615DE0334B3B615AE00C
:1034F000324B3B6157E0FB689B0C0F221340304A74
:10350000D35CBB60FB689B0D0322134001337B60DF
:10351000274BDA6880235B0213400FD0B9680A009A
:103520005201521A93019B1ADB005B185B02796807
:103530001800FCF7FBFD03007B6123E01C4B1B68BC
:10354000102213400FD0B9680A005201521A930199
:103550009B1ADB005B181B0279681800FCF7E6FD7C
:1035600003007B610EE0B9680A005201521A930110
:103570009B1ADB005B189B0279681800FCF7D6FDEC
:1035800003007B617B693B610DE0094B5B685B0B72
:10359000072213403B603B680133802212029A40AD
:1035A00013003B61C0463B691800BD4606B080BDB4
:1035B0000010024000093D000024F40000127A00CF
:1035C000AC6D000880B500AF024B1B681800BD460B
:1035D00080BDC0460400002080B500AFFFF7F2FFB9
:1035E0000100064BDB681B0A07221340044AD35C28
:1035F000D9400B001800BD4680BDC04600100240F7
:10360000A46D000880B500AFFFF7DCFF0100064B9A
:10361000DB68DB0A07221340044AD35CD9400B0065
:103620001800BD4680BDC04600100240A46D0008D1
:1036300080B586B000AF78601723FB1800221A709F
:103640007B681B682022134006D17B681A688023A0
:103650001B01134000D104E1B94B9A6B80235B0539
:1036600013400AD1B64B9A6BB54B802149050A43EA
:103670009A631723FB1801221A70B24B1A68802331
:103680005B0013401AD1AF4B1A68AE4B8021490042
:103690000A431A60FEF79AF903003B6108E0FEF75F
:1036A00095F902003B69D31A642B01D9032343E146
:1036B000A44B1A6880235B001340F0D0A04B1A681B
:1036C000C0239B031340FB607B685A68C0239B03A5
:1036D0001340FA689A4207D17B689A68C0239B031B
:1036E0001340FA689A4213D07B685A68C0239B0241
:1036F0001A40C0239B029A420AD1914B1A68802338
:103700009B021A4080239B029A4201D1012313E1BC
:103710008B4B1A6DC0239B021340FB60FB68002B90
:1037200049D07B685A68C0239B021340FA689A42CA
:1037300004D07B681B68202213400DD17B689A68F7
:10374000C0239B021340FA689A4234D07B681A68FF
:1037500080231B0113402ED0794B1B6D7A4A1340F6
:10376000FB60774B1A6D764B802109030A431A657B
:10377000734B1A6D724B75490A401A65704BFA68A3
:103780001A65FA6880235B00134014D0FEF71EF917
:1037900003003B6109E0FEF719F902003B69D31A07
:1037A0006B4A934201D90323C6E0654B1A6D80230F
:1037B0009B001340EFD07B681A6880231B011340E5
:1037C0001FD07B689A68C0239B021A40C0239B02CB
:1037D0009A420CD15A4B1B685E4A134019007B6811
:1037E0009A68C0239B031A40554B0A431A60544BF6
:1037F000196D7B689A68C0239B021A40504B0A439C
:103800001A657B681B68202213401FD07B685A68AA
:10381000C0239B021A40C0239B029A420CD1484B02
:103820001B684C4A134019007B685A68C0239B03ED
:103830001A40434B0A431A60414B196D7B685A6822
:10384000C0239B021A403E4B0A431A651723FB18FC
:103850001B78012B05D13A4B9A6B394B3E490A40F4
:103860009A637B681B680122134009D0344BDB6CE0
:103870000322934319007B68DA68314B0A43DA6408
:103880007B681B680222134009D02D4BDB6C0C2295
:10389000934319007B681A69294B0A43DA647B68F1
:1038A0001B680422134009D0254BDB6C2B4A1340C4
:1038B00019007B685A69224B0A43DA647B681B68EB
:1038C0000822134009D01E4BDB6C254A1340190017
:1038D0007B689A691A4B0A43DA647B681A6880230A
:1038E0005B00134009D0164BDB6C174A13401900DC
:1038F0007B68DA69124B0A43DA647B681B684022F2
:10390000134009D00E4BDB6C164A134019007B683C
:103910005A6A0B4B0A43DA647B681B6880221340A7
:1039200009D0074BDB6C104A134019007B681A6AF8
:10393000034B0A43DA6400231800BD4606B080BD7D
:103940000010024000700040FFFFFCFFFFFFF7FF88
:1039500088130000FFFFCFFFFFFFFFEFFFF3FFFF24
:10396000FFCFFFFFFFFFFFFBFFFFF3FFB0B584B00A
:1039700000AF78600F23FB1801221A707B68002BC0
:1039800001D1012388E07B6821229B5CDBB2002B04
:1039900007D17B682022002199547B681800FDF72D
:1039A0000DFB7B682122022199547B681B68DB6830
:1039B00010221340102B5FD07B681B68CA225A620A
:1039C0007B681B6853225A620F257C197B6818009C
:1039D00000F03EF90300237028003B181B78002BF1
:1039E0002CD17B681B689A687B681B682C490A404D
:1039F0009A607B681B6899687B685A687B681B695A
:103A00001A437B689B691A437B681B680A439A6068
:103A10007B681B687A68D2681A617B681B681969C1
:103A20007B689B681A047B681B680A431A613C1810
:103A30007B68180000F050F9030023700F23FB1877
:103A40001B78002B13D17B681B68DA6C7B681B68C2
:103A500003218A43DA647B681B68D96C7B68DA6966
:103A60007B685B691A437B681B680A43DA647B687E
:103A70001B68FF225A6203E00F23FB1800221A7012
:103A80000F23FB181B78002B03D17B682122012117
:103A900099540F23FB181B781800BD4604B0B0BD25
:103AA000BFFF8FFF80B586B000AFF860B9607A6065
:103AB00000237B61FB681B689A6ABB685A60FB68DD
:103AC0001B681B695B045A0CBB689A60FB681B6827
:103AD0001B68224A13407B617B691B0CDBB23F22CF
:103AE0001340DAB2BB681A707B691B0ADBB27F2213
:103AF0001340DAB2BB685A707B69DBB27F22134095
:103B0000DAB2BB689A707B699B0DDBB2012213406D
:103B1000DAB2BB68DA707B68002B1AD1BB681B78FD
:103B2000180000F003F903001A00BB681A70BB68A4
:103B30005B78180000F0FAF803001A00BB685A70AE
:103B4000BB689B78180000F0F1F803001A00BB680E
:103B50009A7000231800BD4606B080BD7F7F7F00AD
:103B600080B586B000AFF860B9607A6000237B61F1
:103B7000FB681B685B68214A13407B617B691B0CF7
:103B8000DAB2BB68DA707B691B0ADBB21F22134012
:103B9000DAB2BB685A707B69DBB23F221340DAB2FB
:103BA000BB689A707B695B0BDBB207221340DAB209
:103BB000BB681A707B68002B1AD1BB68DB781800D1
:103BC00000F0B4F803001A00BB68DA70BB685B78D9
:103BD000180000F0ABF803001A00BB685A70BB680D
:103BE0009B78180000F0A2F803001A00BB689A70D6
:103BF00000231800BD4606B080BDC0463FFFFF0051
:103C000080B584B000AF78600023FB607B681B68E0
:103C10000E4ADA60FDF7DAFE0300FB600AE0FDF70A
:103C2000D5FE0200FB68D21AFA239B009A4201D902
:103C3000032306E07B681B68DB6820221340EED07C
:103C400000231800BD4604B080BDC0465FFF0100E0
:103C500080B584B000AF78600023BB600F23FB18F1
:103C600000221A707B681B68DB68402213402CD14D
:103C70007B681B68DA687B681B6880210A43DA600E
:103C8000FDF7A4FE0300BB6014E0FDF79FFE0200F9
:103C9000BB68D21A0F203B18391809781970FA231B
:103CA0009B009A4206D97B682122042199543B1833
:103CB00001221A707B681B68DB684022134004D124
:103CC0000F23FB181B78012BDFD10F23FB181B7868
:103CD0001800BD4604B080BD90B585B000AF7860D7
:103CE0000F243B1900221A707B681B68DA687B6816
:103CF0001B6880218A43DA607B681B689B682022EE
:103D000013400CD17B681800FFF77AFF031E06D022
:103D10007B682122042199543B1901221A700F2338
:103D2000FB181B781800BD4605B090BD80B584B067
:103D300000AF0200FB1D1A700023FB60FB1D1B7807
:103D40001B09DBB21A0013009B009B185B00FB6091
:103D5000FB68DAB2FB1D1B780F210B40DBB2D318D6
:103D6000DBB21800BD4604B080BD000080B586B04F
:103D700000AFF860B9607A60644B1B68FA22D10129
:103D80001800FCF7D3F903001A0013005B019B1A1B
:103D90009B009B18DB007B61FB6820229B5C012B56
:103DA00001D10223ADE0FB68202201219954FB6878
:103DB000212202219954FB681B68CA225A62FB68BF
:103DC0001B6853225A62FB681B689A688023DB00D9
:103DD000134019D07B69013B7B617B69002B0DD1BE
:103DE000FB681B68FF225A62FB6821220321995459
:103DF000FB68202200219954032382E0FB681B68A2
:103E0000DB6804221340E5D1FB681B689A68FB68F5
:103E10001B683F490A409A60FB681B68DB68FF2209
:103E20001A40FB681B683B490A43DA60374B1B6842
:103E3000FA22D1011800FCF779F903001A001300E7
:103E40005B019B1A9B009B18DB007B617B69013B3C
:103E50007B617B69002B0DD1FB681B68FF225A62D6
:103E6000FB68212203219954FB68202200219954E8
:103E7000032346E0FB681B68DB6804221340E5D09F
:103E8000FB681B689A68FB681B6807218A439A6075
:103E9000FB681B689968FB681B687A680A439A602C
:103EA000FB681B68BA685A611B4B1A681A4B802161
:103EB00049030A431A60184B9A68174B802149033B
:103EC0000A439A60FB681B689A68FB681B6880213C
:103ED000C9010A439A60FB681B689A68FB681B6803
:103EE0008021C9000A439A60FB681B68FF225A625E
:103EF000FB68212201219954FB682022002199545A
:103F000000231800BD4606B080BDC0460400002056
:103F1000FFFBFFFF7FFBFFFF0004014080B584B083
:103F200000AF78600023FB607B6820229B5C012B44
:103F300001D102234EE07B682022012199547B6845
:103F40002122022199547B681B68CA225A627B682D
:103F50001B6853225A627B681B689A687B681B68DF
:103F60001E490A409A607B681B689A687B681B68D8
:103F70001B490A409A60FDF729FD0300FB6016E02B
:103F8000FDF724FD0200FB68D21AFA239B009A4237
:103F90000DD97B681B68FF225A627B6821220321AE
:103FA00099547B68202200219954032312E07B68F6
:103FB0001B68DB6804221340E2D07B681B68FF2289
:103FC0005A627B682122012199547B6820220021BA
:103FD000995400231800BD4604B080BDFFFBFFFFCD
:103FE000FFBFFFFF80B582B000AF7860134B802227
:103FF00052035A617B681B689A688023DB01134077
:1040000014D07B681B68DA688023DB0013400DD076
:104010007B681B68DB68FF221A407B681B680849C5
:104020000A43DA607B681800FCF784FF7B68212272
:1040300001219954C046BD4602B080BD0004014034
:104040007FFBFFFF80B582B000AF78607B68002BFC
:1040500001D1012344E07B68DB6F002B07D17B6833
:104060007822002199547B681800FDF7DBF87B6803
:104070002422DA677B681B681A687B681B68012149
:104080008A431A607B685B6A002B03D07B68180048
:1040900000F0D8FF7B68180000F036FD0300012B0C
:1040A00001D101231CE07B681B685A687B681B6890
:1040B0000D490A405A607B681B689A687B681B68D8
:1040C0002A218A439A607B681B681A687B681B6890
:1040D00001210A431A607B68180001F067F80300A9
:1040E0001800BD4602B080BDFFB7FFFF80B582B0AB
:1040F00000AF78607B68002B01D1012330E07B6842
:104100002422DA677B681B681A687B681B680121B8
:104110008A431A607B681B6800221A607B681B68F0
:1041200000225A607B681B6800229A607B68180036
:10413000FDF7ACF97B688422002199507B6800224E
:10414000DA677B688022002199507B6800221A661A
:104150007B6800225A667B687822002199540023EC
:104160001800BD4602B080BD80B58AB002AFF860CD
:10417000B9603B60BB1D1A80FB68DB6F202B00D051
:104180008CE0BB68002B03D0BB1D1B88002B01D12A
:10419000012384E0FB689A6880235B019A4209D17D
:1041A000FB681B69002B05D1BB680122134001D0BD
:1041B000012374E0FB68842200219950FB682122CE
:1041C000DA67FDF703FC03007B61FB68BA1D502131
:1041D00012885A52FB68BA1D522112885A52FB6843
:1041E0009A6880235B019A4208D1FB681B69002B07
:1041F00004D10023FB61BB68BB6103E0BB68FB61CA
:104200000023BB612FE07A69F8683B6800931300D4
:104210000022802101F072F8031E04D0FB682022E6
:10422000DA6703233BE0FB69002B0BD1BB691B88DA
:104230001A00FB681B68D205D20D9A62BB69023373
:10424000BB6107E0FB691A78FB681B689A62FB692F
:104250000133FB61FB6852229B5A9BB2013B99B22E
:10426000FB6852229952FB6852229B5A9BB2002B48
:10427000C9D17A69F8683B68009313000022402195
:1042800001F03CF8031E04D0FB682022DA67032308
:1042900005E0FB682022DA67002300E00223180013
:1042A000BD4608B080BD000080B588B000AFF860A2
:1042B000B960BB1D1A80FB6880229B58202B4AD115
:1042C000BB68002B03D0BB1D1B88002B01D1012331
:1042D00042E0FB689A6880235B019A4209D1FB683F
:1042E0001B69002B05D1BB680122134001D00123BB
:1042F00032E0FB6800221A66FB681B68184A93428A
:1043000020D0FB681B685A6880231B04134019D017
:10431000EFF310833B613B69FB6101237B617B69A8
:1043200083F31088C046FB681B681A68FB681B682B
:104330008021C9040A431A60FB69BB61BB6983F32E
:104340001088C046BB1D1A88B968FB68180001F0C8
:1043500045F8030000E002231800BD4608B080BD08
:104360000048004080B592B000AF7860EFF3108352
:104370003B623B6A7B6401237B627B6A83F3108828
:10438000C0467B681B681A687B681B684B490A40FB
:104390001A607B6CBB62BB6A83F31088C046EFF384
:1043A0001083FB62FB6A3B6401233B633B6B83F33B
:1043B0001088C0467B681B689A687B681B6801216F
:1043C0008A439A603B6C7B637B6B83F31088C046A7
:1043D0007B681B6E012B18D1EFF310837B617B6927
:1043E000FB630123BB61BB6983F31088C0467B6814
:1043F0001B681A687B681B6810218A431A60FB6B74
:10440000FB61FB6983F31088C0467B681B689B686F
:1044100040221340402B35D1EFF31083BB60BB68C3
:10442000BB630123FB60FB6883F31088C0467B6895
:104430001B689A687B681B6840218A439A60BB6B43
:104440003B613B6983F31088C0467B685B6F002B40
:1044500018D07B685B6F00229A637B685B6F1800E3
:10446000FDF758FD031E0DD07B685B6F1800FDF74C
:1044700086FE0300202B05D17B68842210219950F1
:10448000032317E07B685A22002199527B681B683E
:104490000F221A627B681B689A697B681B68082177
:1044A0000A439A617B688022202199507B68002210
:1044B0001A6600231800BD4612B080BDDFFEFFFF64
:1044C00090B5ABB000AF78607B681B68DB69A42255
:1044D000B9180B607B681B681B68A02039180B603B
:1044E0007B681B689B689C2179180B601100BB18C6
:1044F0001B68994A13409822BC182360BB181B689C
:10450000002B14D17B181B68202213400FD03B18BE
:104510001B68202213400AD07B689B6E002B00D1C1
:10452000BEE27B689B6E7A6810009847B8E29823D9
:10453000FB181B68002B00D114E19C23FB181B689F
:104540000122134006D1A023FB181B68834A1340A5
:1045500000D107E1A423FB181B680122134012D0ED
:10456000A023FB181A6880235B0013400BD07B68E4
:104570001B6801221A627B6884229B5801221A431D
:104580007B6884215A50A423FB181B680222134025
:1045900011D09C23FB181B68012213400BD07B68B1
:1045A0001B6802221A627B6884229B5804221A43E9
:1045B0007B6884215A50A423FB181B6804221340F3
:1045C00011D09C23FB181B68012213400BD07B6881
:1045D0001B6804221A627B6884229B5802221A43B9
:1045E0007B6884215A50A423FB181B6808221340BF
:1045F00017D0A023FB181B682022134005D19C2351
:10460000FB181B68012213400BD07B681B68082233
:104610001A627B6884229B5808221A437B68842193
:104620005A50A423FB181A6880231B01134013D08F
:10463000A023FB181A688023DB0413400CD07B688E
:104640001B68802212011A627B6884229B582022F8
:104650001A437B6884215A507B6884229B58002B24
:1046600000D11FE2A423FB181B68202213400ED0A8
:10467000A023FB181B682022134008D07B689B6E88
:10468000002B04D07B689B6E7A68100098477B688B
:1046900084229B5894217A1813607B681B689B685E
:1046A00040221340402B04D07B181B682822134063
:1046B00047D07B68180001F01FF87B681B689B6877
:1046C00040221340402B37D1EFF310833B663B6E03
:1046D00090203A18136001237B667B6E83F3108869
:1046E000C0467B681B689A687B681B6840218A43C8
:1046F0009A603B181B68BB66BB6E83F31088C0468C
:104700007B685B6F002B12D07B685B6F144A9A63E7
:104710007B685B6F1800FDF73DFC031E1AD07B68B9
:104720005B6F9A6B7B685B6F1800904712E07B6849
:10473000180000F0D5F90DE07B68180000F0D0F902
:1047400008E07B68180000F0CBF97B688422002128
:104750009950A7E1C046A5E10F0800002001000420
:104760002B5A00087B681B6E012B00D059E1A42353
:10477000FB181B681022134000D152E1A023FB1844
:104780001B681022134000D14BE17B681B6810228C
:104790001A627B681B689B6840221340402B00D044
:1047A000BFE07B685B6F1B685A687E217B181A80AC
:1047B0007B181B88002B00D195E07B6858229B5A00
:1047C0007A1812889A4200D38DE07B687A185A21B1
:1047D00012885A527B685B6F1B681B68202213404B
:1047E0006FD1EFF310833B633B6BBB6701237B63AC
:1047F0007B6B83F31088C0467B681B681A687B68F4
:104800001B68AD490A401A60BB6FBB63BB6B83F387
:104810001088C046EFF31083FB63FB6B7B670123BB
:104820003B643B6C83F31088C0467B681B689A68C6
:104830007B681B6801218A439A607B6F7B647B6C79
:1048400083F31088C046EFF31083BB64BB6C3B67F7
:104850000123FB64FB6C83F31088C0467B681B68F4
:104860009A687B681B6840218A439A603B6F3B656E
:104870003B6D83F31088C0467B68802220219950CD
:104880007B6800221A66EFF310837B657B6DFB6605
:104890000123BB65BB6D83F31088C0467B681B6832
:1048A0001A687B681B6810218A431A60FB6EFB65DF
:1048B000FB6D83F31088C0467B685B6F1800FDF7C3
:1048C00029FB7B6802225A667B6858229A5A7B68C9
:1048D0005A215B5A9BB2D31A9AB27B681100180016
:1048E00000F006F9E0E07B6858229B5A7E22BA1855
:1048F00012889A4200D0D7E07B685B6F1B681B6808
:1049000020221340202B00D0CEE07B6802225A6682
:104910007B6858229A5A7B681100180000F0E8F86A
:10492000C2E07B685822995A7B685A229B5A9AB2F5
:104930008E203B188A1A1A807B685A229B5A9BB297
:10494000002B00D1B2E03B181B88002B00D1ADE05A
:10495000EFF31083FB60FB6888243A19136001238E
:104960003B613B6983F31088C0467B681B681A680B
:104970007B681B6851490A401A603B191B687B61C0
:104980007B6983F31088C046EFF31083BB61BB697A
:1049900084243A1913600123FB61FB6983F31088B7
:1049A000C0467B681B689A687B681B6801218A4344
:1049B0009A603B191B683B623B6A83F31088C046D0
:1049C0007B688022202199507B6800221A667B68D0
:1049D00000229A66EFF310837B627B6A80243A1987
:1049E00013600123BB62BB6A83F31088C0467B68F7
:1049F0001B681A687B681B6810218A431A603B1980
:104A00001B68FB62FB6A83F31088C0467B68022246
:104A10005A663B181A887B681100180000F068F885
:104A200044E0A423FB181A6880235B03134010D0D2
:104A30009C23FB181A688023DB03134009D07B6892
:104A40001B68802252031A627B68180001F0F0F99B
:104A50002FE0A423FB181B68802213400FD0A02353
:104A6000FB181B688022134009D07B68DB6E002B8B
:104A70001ED07B68DB6E7A681000984718E0A4238C
:104A8000FB181B684022134013D0A023FB181B689F
:104A9000402213400DD07B68180000F0D9FF08E0D9
:104AA000C04606E0C04604E0C04602E0C04600E062
:104AB000C046BD462BB090BDFFFEFFFFDFFEFFFFEF
:104AC00080B582B000AF7860C046BD4602B080BD00
:104AD00080B582B000AF7860C046BD4602B080BDF0
:104AE00080B582B000AF7860C046BD4602B080BDE0
:104AF00080B582B000AF78600A00BB1C1A80C04647
:104B0000BD4602B080BD0000B0B58EB000AFF86108
:104B10001A2318229B18DB1900221A70FB699A6865
:104B2000FB691B691A43FB695B691A43FB69DB6913
:104B300013437B63FB691B681B68C34A134019005E
:104B4000FB691B687A6B0A431A60FB691B685B6828
:104B5000BE4A13401900FB69DA68FB691B680A4307
:104B60005A60FB699B697B63FB691B68B84A934287
:104B700004D0FB691B6A7A6B13437B63FB691B6878
:104B80009B68B44A13401900FB691B687A6B0A439F
:104B90009A60FB691B68B04A934231D1AF4BDB6C22
:104BA00003221340032B1DD023D8022B0CD020D876
:104BB000002B02D0012B0ED01BE01B2318229B18C8
:104BC000DB1901221A70B4E01B2318229B18DB1991
:104BD00002221A70ADE01B2318229B18DB19042255
:104BE0001A70A6E01B2318229B18DB1908221A70E2
:104BF0009FE01B2318229B18DB1910221A7098E0E3
:104C0000FB691B68964A934231D1944BDB6C0C22B2
:104C100013400C2B1DD023D8082B0CD020D8002BF0
:104C200002D0042B0ED01BE01B2318229B18DB198B
:104C300000221A707DE01B2318229B18DB19022228
:104C40001A7076E01B2318229B18DB1904221A70B5
:104C50006FE01B2318229B18DB1908221A7068E0EA
:104C60001B2318229B18DB1910221A7061E0FB69C4
:104C70001B687C4A934206D11B2318229B18DB1920
:104C800000221A7055E0FB691B68774A934206D1EF
:104C90001B2318229B18DB1900221A7049E0FB69BC
:104CA0001B686B4A93423ED16C4BDA6CC0231B01EC
:104CB0001340C0221201934227D0C0221201934216
:104CC0002AD880221201934211D0802212019342ED
:104CD00022D8002B04D08022D20093420ED01BE0B9
:104CE0001B2318229B18DB1900221A7021E01B23BA
:104CF00018229B18DB1902221A701AE01B231822B3
:104D00009B18DB1904221A7013E01B2318229B182E
:104D1000DB1908221A700CE01B2318229B18DB19E0
:104D200010221A7005E01B2318229B18DB19102291
:104D30001A70FB691B68464A934200D09AE01B2315
:104D400018229B18DB191B78082B1DD020DC042BA4
:104D500015D01DDC002B02D0022B05D018E0FEF789
:104D60003BFC0300FB621CE03C4B1B681022134021
:104D700002D03E4BFB6214E03D4BFB6211E0FEF7BC
:104D80009BFB0300FB620CE080231B02FB6208E03C
:104D90000023FB621A2318229B18DB1901221A70C8
:104DA000C046FB6A002B00D133E1FB695A6813004F
:104DB0005B009B18FA6A9A4205D3FB695B681B0388
:104DC000FA6A9A4206D91A2318229B18DB19012283
:104DD0001A701EE1FB6A3B6100237B6139697A69C5
:104DE0000B001B0E100005021D430B001C02FB698B
:104DF0005B685B08BB600023FB60B868F96800195A
:104E00006941FB695B683B6000237B603A687B68B3
:104E1000FBF702FB02000B001300BB62BA6AC0235F
:104E20009B009A4209D3BA6A80235B039A4204D258
:104E3000FB691B68BA6ADA60EBE01A2318229B1838
:104E4000DB1901221A70E4E0F369FFEFFFCFFFFFE7
:104E500000480040FFF4FFFF00380140001002400E
:104E600000440040004C00400050004000093D005C
:104E70000024F400FB69DA6980231B029A4200D007
:104E800070E01B2318229B18DB191B78082B22D8F3
:104E90009A00674BD3181B689F46FEF79DFB0300E3
:104EA000FB6221E0FEF7AEFB0300FB621CE0614BFE
:104EB0001B681022134002D05F4BFB6214E05F4B73
:104EC000FB6211E0FEF7F8FA0300FB620CE08023BE
:104ED0001B02FB6208E00023FB621A2318229B18C6
:104EE000DB1901221A70C046FB6A002B00D190E04A
:104EF000FB6A5A00FB695B685B08D218FB695B6858
:104F000019001000FBF712F90300BB62BB6A0F2BFC
:104F100021D9BA6A80235B029A421CD2BB6A9AB238
:104F20000E2018240319DB190F218A431A80BB6A4B
:104F30005B089BB20722134099B20319DB190219CF
:104F4000D21912880A431A80FB691B680219D21908
:104F50001288DA605DE01A2318229B18DB190122FF
:104F60001A7056E01B2318229B18DB191B78082B9C
:104F700022D89A00324BD3181B689F46FEF72CFBB1
:104F80000300FB6221E0FEF73DFB0300FB621CE037
:104F9000284B1B681022134002D0274BFB6214E001
:104FA000264BFB6211E0FEF787FA0300FB620CE080
:104FB00080231B02FB6208E00023FB621A231822F5
:104FC0009B18DB1901221A70C046FB6A002B20D007
:104FD000FB695B685A08FB6AD218FB695B681900B9
:104FE0001000FBF7A3F80300BB62BB6A0F2B0AD9C2
:104FF000BA6A80235B029A4205D2BB6A9AB2FB6905
:105000001B68DA6005E01A2318229B18DB190122BD
:105010001A70FB6900229A66FB690022DA661A237D
:1050200018229B18DB191B781800BD460EB0B0BDC6
:10503000B86D00080010024000093D000024F40093
:10504000DC6D000880B582B000AF78607B685B6A79
:10505000082213400BD07B681B685B684A4A1340E8
:1050600019007B685A6B7B681B680A435A607B682F
:105070005B6A012213400BD07B681B685B68434A64
:10508000134019007B689A6A7B681B680A435A6060
:105090007B685B6A022213400BD07B681B685B68ED
:1050A0003B4A134019007B68DA6A7B681B680A4335
:1050B0005A607B685B6A042213400BD07B681B68D4
:1050C0005B68344A134019007B681A6B7B681B6865
:1050D0000A435A607B685B6A102213400BD07B68DE
:1050E0001B689B682C4A134019007B689A6B7B688D
:1050F0001B680A439A607B685B6A202213400BD0CE
:105100007B681B689B68254A134019007B68DA6B33
:105110007B681B680A439A607B685B6A4022134085
:105120001DD07B681B685B681D4A134019007B68B3
:105130001A6C7B681B680A435A607B681A6C802370
:105140005B039A420BD17B681B685B68154A13406E
:1051500019007B685A6C7B681B680A435A607B683D
:105160005B6A802213400BD07B681B685B680E4A29
:10517000134019007B689A6C7B681B680A435A606D
:10518000C046BD4602B080BDFF7FFFFFFFFFFDFFB1
:10519000FFFFFEFFFFFFFBFFFFEFFFFFFFDFFFFF54
:1051A000FFFFEFFFFFFF9FFFFFFFF7FF80B592B00C
:1051B00002AF78607B68842200219950FCF706FCDE
:1051C0000300FB637B681B681B6808221340082BE5
:1051D0002CD1FB6B802291037868464A0092002212
:1051E00000F08CF8031E21D0EFF310837B627B6A02
:1051F000BB630123BB62BB6A83F31088C0467B6834
:105200001B681A687B681B6880218A431A60BB6B25
:10521000FB62FB6A83F31088C0467B682022DA6752
:105220007B6878220021995403235FE07B681B6828
:105230001B6804221340042B46D1FB6B8022D10350
:1052400078682C4A0092002200F058F8031E3BD0E8
:10525000EFF31083FB60FB687B6301233B613B69D9
:1052600083F31088C0467B681B681A687B681B68DC
:1052700021490A401A607B6B7B617B6983F310884C
:10528000C046EFF31083BB61BB693B630123FB6145
:10529000FB6983F31088C0467B681B689A687B684B
:1052A0001B6801218A439A603B6B3B623B6A83F334
:1052B0001088C0467B688022202199507B68782224
:1052C00000219954032311E07B682022DA677B6870
:1052D0008022202199507B6800221A667B68002278
:1052E0005A667B6878220021995400231800BD4635
:1052F00010B080BDFFFFFF01DFFEFFFF80B584B06F
:1053000000AFF860B9603B60FB1D1A7051E0BB69EB
:1053100001334ED0FCF75AFB02003B68D31ABA693E
:105320009A4202D3BB69002B01D1032351E0FB68F1
:105330001B681B68042213403BD0BB68802B38D00D
:10534000BB68402B35D0FB681B68DB690822134023
:10535000082B11D1FB681B6808221A62FB68180031
:1053600000F0CAF9FB68842208219950FB68782272
:105370000021995401232CE0FB681B68DA69802323
:105380001B011A4080231B019A4212D1FB681B6843
:10539000802212011A62FB68180000F0ADF9FB6868
:1053A000842220219950FB687822002199540323FC
:1053B0000FE0FB681B68DB69BA681340BA68D31A50
:1053C0005A425341DBB21A00FB1D1B789A429ED011
:1053D00000231800BD4604B080BD000080B590B029
:1053E00000AFF860B960BB1D1A80FB68BA685A65E7
:1053F000FB68BA1D582112885A52FB68BA1D5A21FF
:1054000012885A52FB6800229A66FB689A688023C9
:105410005B019A420DD1FB681B69002B04D1FB682C
:105420005C22504999522EE0FB685C22FF21995280
:1054300029E0FB689B68002B0DD1FB681B69002BE2
:1054400004D1FB685C22FF2199521CE0FB685C22BE
:105450007F21995217E0FB689A6880235B059A4286
:105460000DD1FB681B69002B04D1FB685C227F21F6
:10547000995208E0FB685C223F21995203E0FB68E7
:105480005C2200219952FB68842200219950FB681C
:10549000802222219950EFF31083BB62BB6AFB6329
:1054A0000123FB62FB6A83F31088C046FB681B681C
:1054B0009A68FB681B6801210A439A60FB6B3B6397
:1054C0003B6B83F31088C046FB689A6880235B01BE
:1054D0009A4207D1FB681B69002B03D1FB68224A63
:1054E0009A6602E0FB68214A9A66FB681B69002BFA
:1054F00019D0EFF31083FB61FB697B6301233B62EF
:105500003B6A83F31088C046FB681B681A68FB6817
:105510001B68902149000A431A607B6B7B627B6A9F
:1055200083F3108818E0EFF310833B613B69BB63A2
:1055300001237B617B6983F31088C046FB681B688D
:105540001A68FB681B6820210A431A60BB6BBB61A9
:10555000BB6983F31088C04600231800BD4610B015
:1055600080BDC046FF0100006D5C0008A95A00081C
:1055700080B590B000AFF860B960BB1D1A80FB68C1
:10558000BA685A65FB68BA1D582112885A52FB68DE
:10559000842200219950FB68802222219950FB68C7
:1055A0005B6F002B28D0FB685B6F3E4ADA62FB68BA
:1055B0005B6F3D4A1A63FB685B6F3C4A5A63FB684A
:1055C0005B6F00229A63FB68586FFB681B6824338B
:1055D0001900FB685B6D1A00BB1D1B88FCF734FCCF
:1055E000031E09D0FB68842210219950FB68802299
:1055F00020219950012350E0FB681B69002B19D032
:10560000EFF31083BB62BB6AFB630123FB62FB6A9F
:1056100083F31088C046FB681B681A68FB681B6828
:10562000802149000A431A60FB6B3B633B6B83F3A9
:105630001088C046EFF310833B613B69BB630123D5
:105640007B617B6983F31088C046FB681B689A689E
:10565000FB681B6801210A439A60BB6BBB61BB6995
:1056600083F31088C046EFF31083FB61FB697B6313
:1056700001233B623B6A83F31088C046FB681B68CA
:105680009A68FB681B6840210A439A607B6B7B62C7
:105690007B6A83F31088C04600231800BD4610B013
:1056A00080BDC046C157000829590008A759000805
:1056B00080B586B000AF7860EFF31083BB60BB6845
:1056C0007B610123FB60FB6883F31088C0467B6825
:1056D0001B681A687B681B68C0218A431A607B6953
:1056E0003B613B6983F31088C0467B682022DA6700
:1056F000C046BD4606B080BD80B58EB000AF7860B4
:10570000EFF310837B617B697B630123BB61BB6922
:1057100083F31088C0467B681B681A687B681B6827
:1057200026490A401A607B6BFB61FB6983F3108892
:10573000C046EFF310833B623B6A3B6301237B620D
:105740007B6A83F31088C0467B681B689A687B6815
:105750001B6801218A439A603B6BBB62BB6A83F37F
:105760001088C0467B681B6E012B18D1EFF31083A5
:10577000BB60BB68FB620123FB60FB6883F310889E
:10578000C0467B681B681A687B681B6810218A43C7
:105790001A60FB6A3B613B6983F31088C0467B68F3
:1057A0008022202199507B6800221A667B680022A3
:1057B0009A66C046BD460EB080BDC046DFFEFFFF04
:1057C00080B594B000AF78607B689B6AFB647B68AF
:1057D0001B681B68202213406FD1FB6C5A220021EA
:1057E0009952EFF310837B617B69BB640123BB613A
:1057F000BB6983F31088C046FB6C1B681A68FB6C9E
:105800001B6848490A401A60BB6CFB61FB6983F363
:105810001088C046EFF310833B623B6A7B64012330
:105820007B627B6A83F31088C046FB6C1B689A68B6
:10583000FB6C1B6801218A439A607B6CBB62BB6A6C
:1058400083F31088C046EFF31083FB62FB6A3B646E
:1058500001233B633B6B83F31088C046FB6C1B68E2
:105860009A68FB6C1B6840218A439A603B6C7B639F
:105870007B6B83F31088C046FB6C802220219950FB
:10588000FB6C1B6E012B18D1EFF31083BB60BB6860
:10589000FB630123FB60FB6883F31088C046FB6C4D
:1058A0001B681A68FB6C1B6810218A431A60FB6B2B
:1058B0003B613B6983F31088C046FB6C00225A664B
:1058C000FB6C1B6E012B24D1FB6C5A2200219952D8
:1058D0007B681B685A683A217B181A80FB6C582237
:1058E0009B5A7A1812889A4204D2FB6C7A185A2171
:1058F00012885A52FB6C58229A5AFB6C5A215B5AF6
:105900009BB2D31A9AB2FB6C11001800FFF7F0F8A3
:1059100003E0FB6C1800FBF7DBFBC046BD4614B090
:1059200080BDC046FFFEFFFF80B584B000AF786049
:105930007B689B6AFB60FB6801225A66FB681B6EF2
:10594000012B28D1FB6858229B5A5B0899B2FB684F
:105950005A2299527B681B685A680A217B181A8060
:10596000FB6858229B5A7A1812889A4204D8FB681E
:105970007A185A2112885A52FB6858229A5AFB68A0
:105980005A215B5A9BB2D31A9AB2FB6811001800D5
:10599000FFF7AEF803E0FB681800FFF799F8C04680
:1059A000BD4604B080BD80B586B000AF78607B682E
:1059B0009B6A7B617B69DB6F3B617B6980229B58C3
:1059C000FB607B691B689B6880221340802B0AD197
:1059D0003B69212B07D17B695222002199527B69B7
:1059E0001800FFF765FE7B691B689B684022134027
:1059F000402B0AD1FB68222B07D17B695A22002158
:105A000099527B691800FFF777FE7B6984229B58C7
:105A100010221A437B6984215A507B691800FFF7D2
:105A20005FF8C046BD4606B080BD80B584B000AF0B
:105A300078607B689B6AFB60FB685A220021995260
:105A4000FB681800FFF74CF8C046BD4604B080BDA7
:105A500080B586B000AF7860EFF31083BB60BB68A1
:105A60007B610123FB60FB6883F31088C0467B6881
:105A70001B681A687B681B6840218A431A607B692F
:105A80003B613B6983F31088C0467B682022DA675C
:105A90007B680022DA667B681800FFF711F8C046C1
:105AA000BD4606B080BD000080B594B000AF786000
:105AB0004E203B187A685C21525A1A807B688022FB
:105AC0009B58222B00D0BFE07B681B685A6A4C2190
:105AD0007B181A807B181B88DAB23B181B88D9B256
